:100000000C944A010C9470010C9470010C946E06CF
:100010000C9470010C9470010C9470010C9470019C
:100020000C9470010C9470010C9470010C9470018C
:100030000C9470010C9470010C9470010C9470017C
:100040000C943D100C9470010C9470010C94700190
:100050000C94850F0C9470010C9470010C94700139
:100060000C9470010C9470010C9470010C9470014C
:100070000C9470010C9470010C9470010C9470013C
:100080000C9470010C9470010C9470010C9470012C
:100090000C9470010C9470010C9470010C9470011C
:1000A0000C9470010C9470010C9470010C9470010C
:1000B0000C9470010C9470010C9470010C94FF0D61
:1000C0000C9470010C9470010C9470010C947001EC
:1000D0000C9470010C94340D0C9470010C9470010C
:1000E0000C9470010C9470010C9470010C947001CC
:1000F0000C9470010C9470010C9470010C947001BC
:100100000C9470010C9470010C9470010C947001AB
:100110000C9470010C9470010C9470010C9470019B
:100120000C9470010C9470010C9470010C9470018B
:100130000C9470010C94520F0C9470010C9470018B
:100140000C9470010C9470010C9470010C948C0E42
:100150000C9470010C9470010C9470010C9470015B
:100160000C9470010C9470010C9470010C9470014B
:100170000C9470010C9470010C9470010C9470013B
:100180000C9470010C9470010C94A5030C948210D3
:100190000C9470010C9470010C9470010C9470011B
:1001A0000C9470010C9470010C9470010C9470010B
:1001B0000C9470010C9470010C9470010C947001FB
:1001C0000C9470010C9470010C9424030C94700135
:1001D0000C9470010C9470010C9470010C947001DB
:1001E0000C9470010C9470010C9470010C947001CB
:1001F0000C94700105A84CCDB2D44EB93836A90282
:100200000C50B9918688083CA6AAAA2ABE00000014
:10021000803F07634236B79BD8A71A39685618AE95
:10022000BAAB558C1D3CB7CC5763BD6DEDFD753E2B
:10023000F6177231BF000000803F08000000BE9238
:100240002449123EABAAAA2ABECDCCCC4C3E00001B
:100250000080BEABAAAAAA3E00000000BF000000BA
:10026000803F0000000000084178D3BB4387D113D2
:100270003D190E3CC3BD4282AD2B3E68EC8276BE7A
:10028000D98FE1A93E4C80EFFFBE01C4FF7F3F0044
:100290000000000011241FBECFEFDFE3DEBFCDBFA3
:1002A00000E00CBF18BE19BE1ABE1BBE14E2A0E0CF
:1002B000B0E2E8E1F3EC00E00BBF02C007900D9262
:1002C000A43DB107D9F71BBE15E3A4EDB4E201C00C
:1002D0001D92A830B107E1F70E94A6080C948A612C
:1002E0000C9400000F931F938091E124882309F060
:1002F0005CC18091DD24882309F047C02091DE2471
:10030000253008F042C088EE93E0A0E0B0E0809392
:10031000612090936220A0936320B093642084E6D0
:1003200090E0A0E0B0E08093652090936620A093D9
:100330006720B093682089E080937C202330A1F46B
:1003400000E416E08AE0F801868368EE73E080E05E
:1003500090E040E00E94874F0E94CA5082E0F8017E
:10036000868388E0858307C060EA7FE080E090E0D4
:1003700040E00E943D4E609161207091622080912A
:100380006320909164200E94304C8091DD24813064
:1003900009F06BC06091DE24663008F066C02091E1
:1003A000692030916A202093D4243093D5248AE0A8
:1003B00090E080936B2090936C204091D6245091D4
:1003C000D724CA01820F931F8093D8249093D924F5
:1003D0008AE080937D206430C1F584E690E08093CC
:1003E000D8249093D924CA01821B930B8093DA24DA
:1003F0009093DB248135910554F080E590E0809363
:10040000DA249093DB2462E070E00E946D4A8091D0
:10041000D8249091D9244091DA245091DB249C0176
:10042000241B350B359527952093692030936A203E
:10043000480F591F559547954093D6245093D7247C
:1004400061E070E00E946D4A08C084E690E080930D
:10045000692090936A200E94A04B8091692090911E
:100460006A2060E070E00E94595A8091DD24823059
:1004700009F076C08AE090E080936D2090936E2022
:100480004091D6245091D7242091692030916A2040
:10049000CA01821B930B8093DA249093DB248AE0B9
:1004A00080937E208091DE248430C1F58CE99FEF1B
:1004B0008093DA249093DB24CA01820F931F8093E8
:1004C000D8249093D924805B9F4F54F480EB9FEF06
:1004D0008093D8249093D92461E070E00E946D4A03
:1004E0002091D8243091D9248091DA249091DB2472
:1004F000A901481B590B5595479540936920509386
:100500006A20280F391F359527952093D6243093DC
:10051000D72462E070E00E946D4A08C01092D62491
:100520001092D72480E090E00E94FD4A8091DE2462
:10053000863071F42091D6243091D724C901880FD8
:10054000991F820F931F049761E00E941B5008C0FF
:100550008091692090916A2060E070E00E94595A71
:100560008091DD24833009F584EF91E080936F2042
:10057000909370208AE090E0809371209093722095
:100580008CE080937F2040916120509162206091A7
:1005900063207091642084EF91E00E94E353809186
:1005A0006F20909170200E948D498091DE248430CC
:1005B00009F045C08091E124813009F040C080916C
:1005C00007258823C9F484E690E0809373209093F4
:1005D00074208AE090E080937520909376208AE0E2
:1005E0008093802084E690E00E9495538091732050
:1005F000909174200E942A49809107258130F9F456
:100600008AE090E0809377209093782081E090E0DA
:100610008093792090937A201092DC248CE0809350
:1006200081208AE090E060E00E9464596091DC24BF
:10063000809177209091782070E00E949A480E94E3
:100640007F531F910F9108951F920F920FB60F9233
:1006500008B60F9209B60F920BB60F92112418BE6E
:1006600019BE1BBE2F933F934F935F936F937F935E
:100670008F939F93AF93BF93EF93FF938091DF246A
:10068000873069F48091E22482FF04C080E8E0E4CE
:10069000F6E0868388E0E0E4F6E085833FC08530BD
:1006A00059F4E0E4F6E084E087838091E22482FF5D
:1006B00035C080E8878332C0863081F58091EE2492
:1006C0009091DE248823B9F4923019F482E090E00E
:1006D00002C080E090E00E94094E8091E22482FFF7
:1006E00004C080E8E0E4F6E085838091EE248F5F2B
:1006F0008093EE2413C0923019F482E094E002C09B
:1007000080E094E00E94094E8091E22482FF04C0C0
:1007100080E8E0E4F6E086831092EE24FF91EF910A
:10072000BF91AF919F918F917F916F915F914F9109
:100730003F912F910F900BBE0F9009BE0F9008BEF6
:100740000F900FBE0F901F9018951F920F920FB62B
:100750000F9208B60F9209B60F920BB60F921124A2
:1007600018BE19BE1BBE2F933F934F935F936F9399
:100770007F938F939F93AF93BF93EF93FF9380915A
:10078000E3249091E42497FD0EC087E061E00E948D
:10079000785080E4E0E2F7E086838091E324909152
:1007A000E42490680DC087E060E00E94785080E407
:1007B000E0E2F7E085838091E3249091E4249F7741
:1007C0008093E3249093E4240E947F5388EE93E087
:1007D00020E233E0F9013197F1F70197D9F7FF9162
:1007E000EF91BF91AF919F918F917F916F915F91A9
:1007F0004F913F912F910F900BBE0F9009BE0F901C
:1008000008BE0F900FBE0F901F9018950E942154A4
:10081000E0E4F6E088E0868382E085838093DD244F
:1008200082E092E20E94094E80E492E20E94234E0E
:1008300060E070E080E090E041E00E943D4E80E0AA
:1008400090E060E00E94454F80E090E00E94CC4D37
:100850008FEF9FE00E94D14D80E6E0E2F6E08683D4
:1008600080E090E060E00E941B5086E060E00E9423
:10087000785084E060E00E94785085E060E00E945B
:10088000785086E061E00E947850809169209091D4
:100890006A208093D4249093D5240E943F4D2091C8
:1008A000D6243091D724C901880F991F820F931F36
:1008B000049761E00E941B5008950F931F930E94BC
:1008C0002154E0E4F6E088E0868382E0858380912D
:1008D000DD24882319F481E08093DD2480E392E213
:1008E0000E94094E80E492E20E94234E60E075E58A
:1008F0008DEA97E040E00E943D4E80E090E060E0AD
:100900000E94454F85E397E061E00E94454F80E0FB
:1009100090E00E94CC4D84E0E0E8F6E0868382E03F
:10092000E0E4F6E0868380EA9FE00E94D14D80E615
:10093000E0E2F6E0868384E690E020E233E0F9012D
:100940003197F1F70197D9F782E060E00E94785083
:1009500083E060E00E94785000E416E082E0F80155
:10096000868388E085836091692070916A20CB013D
:10097000615070400E94595A86E061E00E947850B0
:100980008AE0F80185830E943F4D1F910F910895E1
:100990008091612090916220A0916320B0916420A9
:1009A000815A9648A140B04070F080EA96E8A1E0F4
:1009B000B0E08093612090936220A0936320B09375
:1009C00064200E947F53E0E4F6E088E0868382E0C2
:1009D000858382E092E20E94094E88E292E20E94C0
:1009E000234E6091612070916220809163209091EC
:1009F000642040E00E94874F0E94CA5060916920A5
:100A000070916A20CB01615070400E94595A8091C8
:100A1000E22480FF04C086E060E00E94785084E019
:100A2000E0E8F6E0858380EA9FE00E94D14D80E611
:100A3000E0E2F6E0868384E690E020E233E0F9012C
:100A40003197F1F70197D9F782E061E00E94785081
:100A500083E060E00E9478500E9421540E943F4D44
:100A600008958091612090916220A0916320B091BF
:100A7000642081549244AF40B04070F080E492E42E
:100A8000AFE0B0E08093612090936220A093632058
:100A9000B09364200E947F53E0E4F6E088E0868310
:100AA00082E0858382E092E20E94094E80E492E235
:100AB0000E94234E6091612070916220809163209A
:100AC00090916420A2E0660F771F881F991FAA9556
:100AD000D1F740E00E943D4E80E090E060E00E944F
:100AE000454F84E0E0E8F6E0868380EA9FE00E94DC
:100AF000D14D80E6E0E2F6E0868384E690E020E2F5
:100B000033E0F9013197F1F70197D9F782E061E01D
:100B10000E94785083E060E00E94785060916920E4
:100B200070916A20CB01615070400E94595A8091A7
:100B3000E22480FF04C086E060E00E9478508AE0F2
:100B4000E0E4F6E085830E9421540E943F4D089521
:100B5000E0E4F6E088E0868382E0858380E092E24C
:100B60000E94094E80E492E20E94234E609161202F
:100B7000709162208091632090916420B2E0660FB2
:100B8000771F881F991FBA95D1F740E00E943D4E0C
:100B900080E090E060E00E94454F409161205091DC
:100BA0006220609163207091642080916F20909109
:100BB00070200E94E35384E0E0E8F6E0868380E85A
:100BC000E0EAF6E086838FEF9FE00E94D14D80E659
:100BD000E0E2F6E0868384E690E020E233E0F9018B
:100BE0003197F1F70197D9F782E060E00E947850E1
:100BF00083E061E00E9478506091692070916A20E2
:100C0000CB01615070400E94595A86E061E00E9419
:100C100078508AE0E0E4F6E085830E9421540E9447
:100C20003F4D0895E0E4F6E088E0868382E0858326
:100C300080E092E20E94094E80E492E20E94234EFC
:100C40006091612070916220809163209091642076
:100C500022E0660F771F881F991F2A95D1F740E081
:100C60000E943D4E80E090E060E00E94454F84E0AD
:100C7000E0E8F6E0868380EA9FE00E94D14D80E6BE
:100C8000E0E2F6E0868384E690E020E233E0F901DA
:100C90003197F1F70197D9F782E060E00E94785030
:100CA00083E060E00E9478506091692070916A2032
:100CB000CB01615070400E94595A8091E22480FF1C
:100CC00004C086E060E00E9478508AE0E0E4F6E04C
:100CD00085830E9421540E943F4D08951F920F92D8
:100CE0000FB60F9208B60F9209B60F920BB60F927D
:100CF000112418BE19BE1BBE1F932F933F934F9311
:100D00005F936F937F938F939F93AF93BF93EF9373
:100D1000FF931091DF241830F9F48091E32482FFCF
:100D20007EC086E063E00E94BF2680E090E20E94E1
:100D3000EC2680E163E00E94BF26E0E4F6E094E068
:100D4000968315838091E524882319F49093400AB3
:100D500066C09093000B63C0173009F047C08091C4
:100D6000E3249091E424837090708230910529F5FA
:100D7000E0E4F6E088E085838091E22482FF02C00F
:100D800080EC85838CE063E00E94BF2686E090E2E1
:100D90000E94EC268091E024882321F48091D620C3
:100DA00060E005C0813031F48091D72061E00E947D
:100DB000BF2635C080E163E0FACF019781F5E0E01E
:100DC000F8E010A211A28091E22482FF04C080E822
:100DD000E0E4F6E0868382E0E0E0F8E08783E0E4A8
:100DE000F6E081E0818788E0858319C01630B9F488
:100DF000809148069091DE2484FF08C0923019F457
:100E000082E090E00AC080E090E007C0923019F4E0
:100E100082E094E002C080E094E00E94094EFF91DD
:100E2000EF91BF91AF919F918F917F916F915F9162
:100E30004F913F912F911F910F900BBE0F9009BEC4
:100E40000F9008BE0F900FBE0F901F9018958091C5
:100E5000612090916220A0916320B091642081581C
:100E60009649A849B04070F080E896E9A8E9B0E05A
:100E70008093612090936220A0936320B0936420BC
:100E80000E947F538091692090916A200A9730F4E4
:100E90008AE090E08093692090936A2040916920D5
:100EA00050916A208091D6249091D7249C01240FE0
:100EB000351F2093D8243093D924841B950B80931D
:100EC000DA249093DB24E0E4F6E088E0868382E095
:100ED000858382E092E20E94094E80E492E20E94C1
:100EE000234E6091612070916220809163209091E7
:100EF000642032E0660F771F881F991F3A95D1F75B
:100F000040E00E943D4E80E090E060E00E94454F4E
:100F100080917320909174200E9495538091772046
:100F2000909178200E94D14D84E0E0E8F6E086833D
:100F300080E8E0EAF6E0858384E690E020E233E0B2
:100F4000F9013197F1F70197D9F782E061E00E944A
:100F5000785083E061E00E947850809177209091F2
:100F600078206091DC240E94D759609169207091AB
:100F70006A20CB01615070400E94595A86E061E0BE
:100F80000E9478508AE0E0E4F6E085830E942154D4
:100F90008091E124813009F03FC080E060E00E9450
:100FA000BF268BE090E20E94EC2680E061E00E9488
:100FB000BF268CE190E20E94EC2680E062E00E9475
:100FC000BF268DE290E20E94EC268091DE2490E024
:100FD0000E943F438091DF2490E00E94F04980917D
:100FE0007320909174200E942A496091DC248091A2
:100FF00077209091782070E00E949A488091072590
:10100000882321F48091802060E003C080918120BA
:1010100061E00E94BF2608950E943F4D08958EE032
:10102000E0E4F6E0858381E060E00E947850809102
:10103000612090916220A0916320B091642000977C
:10104000A105B10561F481E090E0A0E0B0E08093FB
:10105000612090936220A0936320B09364208091DC
:10106000DE24833071F46091612070916220809160
:1010700063209091642040E00E94874F0E94CA50F4
:1010800030C0853091F06091612070916220809134
:1010900063209091642042E0660F771F881F991F9C
:1010A0004A95D1F740E00E943D4E60E070E080E05C
:1010B00090E040E00E94C14E60E070E080E090E08F
:1010C00041E00E94C14E80E090E060E00E94664FE7
:1010D00080E090E061E00E94664F80E492E20E942E
:1010E000234E8091692090916A2060E070E00E9418
:1010F000595A0E9421540E943F4D0895EF92FF9249
:101100000F931F93CF93DF93EE24FF2400E4802FEF
:101110000E94AF26E70153E0CC0FDD1F5A95E1F79F
:10112000C252DF4D10E089910E94B7261F5F183030
:10113000D1F70894E11CF11C085F083741F7DF91F3
:10114000CF911F910F91FF90EF9008952F923F92B2
:101150004F925F926F927F928F929F92AF92BF92C7
:10116000CF92DF92EF92FF920F931F93CF93DF9373
:1011700080E49FE10197F1F7109250008BECE0E5DD
:10118000F0E08283809150008860809350008091CD
:10119000510083FFFCCF82ECE0E5F0E08583809195
:1011A00050008061809350008091510084FFFCCFFB
:1011B00088ED84BF04E0009340008CE00E94062785
:1011C0000E94D626E0E0F6E088EC81838683E0E2A8
:1011D000F6E080EE81838683A0E4B6E08EEC119683
:1011E0008C9311978EE815968C93159790E416962C
:1011F0009C931697E0E8F6E001830683E0EAF6E0C8
:1012000080EC81838683E0E2F7E095839183E0E0E0
:10121000F7E099E1978B80E8828788E1848B968B51
:1012200080E583878FE0818780E11B968C931B97F5
:1012300012E054961C935497E0E0F8E0178280E89F
:10124000E82E81E0F82E85E68093800188E0809387
:101250000008DD24D3945596DC92559780E21A96C7
:101260008C931A9719961C9284ECD70111968C9343
:1012700010A211A2E0E4F8E0109240088FE490E0A0
:1012800086A397A316830E941B25E0E0F9E0009354
:10129000000980E29EE486A397A31683E0E4F9E0C8
:1012A000109240098FE990E086A397A31683E0E0AF
:1012B000FAE01092000A16A217A21683E0E4FAE000
:1012C0001092400A16A217A21683E0E0FBE01092EB
:1012D000000B16A217A2D68280EFF7018283E0E40A
:1012E000FBE01092400B16A217A216838091A20079
:1012F0008660E0EAF0E0828380E163E00E94BF263E
:101300000E947E080E94D62688E893E120E233E01E
:10131000F9013197F1F70197D9F70E94AD4D0E947D
:10132000D64D0E94D14F0E943D500E94B55080E49E
:1013300092E20E94234E6091612070916220809120
:10134000632090916420F2E0660F771F881F991F39
:10135000FA95D1F740E00E943D4E8091692090912E
:101360006A208093D4249093D52460E070E00E949A
:10137000595A8091D6249091D72440916920509158
:101380006A209C01240F351F2093D8243093D92440
:10139000841B950B8093DA249093DB2481E190E009
:1013A0000E9447618093E22480FD03C086E061E0F3
:1013B00002C086E060E00E9478500E942154809133
:1013C000E22483FF02C08FE001C08EE00E94062766
:1013D0008FEF9FE00E94D14D0E943F4D88ED84BF6A
:1013E00081E0E0E9F0E0868388EB9BE020E233E0F7
:1013F000F9013197F1F70197D9F787E061E00E9491
:10140000785080E4E0E2F7E086838091E3249091D5
:10141000E42490688093E3249093E424789400E09B
:10142000EBE0CE2E79E0972E61E0E62EF12C5EE027
:10143000252E45E0842E31E0432E512C612C712C59
:1014400026E0322E97E0B92E83E0A82E8091F22478
:101450009091F32441E050E0002E02C0440F551F4C
:101460000A94E2F784239523892B09F4F7C220918B
:10147000F2243091F324CA0180959095822393231E
:101480008093F2249093F324073009F455C0083078
:1014900098F4033009F446C0043038F4013079F18F
:1014A0008091DE240230A8F522C0053009F459C02D
:1014B000063008F04CC05FC00B3009F4E5C00C30BA
:1014C00048F4093009F4F7C08091DE240A3008F0AE
:1014D000E6C0F5C00D3009F4F4C10D3008F419C1AF
:1014E0000E3009F4B6C20F3009F0B8C2B5C2882375
:1014F00009F4B4C21092DE240E941206AFC2809199
:10150000DE24813009F4AAC20093DE240E94A805DB
:10151000A5C2823009F4A2C282E08093DE240E9438
:1015200031059CC28091DE24833009F497C2009378
:10153000DE240E94C80492C28091DE24843009F423
:101540008DC2F4E0F093DE240E94270787C28091C9
:10155000DE24853009F482C28092DE240E945D047C
:101560007DC28091DE24863009F478C23092DE2478
:101570000E94060473C285E063E00E94BF268EE3EA
:1015800090E20E94EC2612E0D12E7AC08091F224E3
:101590009091F32441E050E00C2E02C0440F551FFF
:1015A0000A94E2F784239523892B09F461C02091E2
:1015B000F2243091F324CA018095909582239323DD
:1015C0008093F2249093F32485E063E00E94BF2689
:1015D000C33039F1C43028F4C13091F0C230C0F4C6
:1015E00007C0C63071F1C73021F1C530E1F532C016
:1015F000D092DF2482E00E94AE530E94B23B37C0FB
:10160000A092DF2483E00E94AE530E940B392FC0CA
:1016100024E02093DF2484E00E94AE530E9415371B
:1016200026C08092DF2485E00E94AE530E94722C77
:101630001EC086E08093DF240E94AE530E94803457
:1016400016C098E09093DF2488E00E94AE530E9479
:101650008D310DC0A7E0A093DF2487E00E94AE5338
:101660000E945A2804C01092DF240E940F0821E033
:101670002196C031D10509F089CF222309F0EEC1AE
:1016800020E0C0E0D0E082CF8091DE24853008F0F9
:10169000E5C11092DD2480917C2060E009C0863095
:1016A00018F481E08093DD2480917D206091DD2419
:1016B0000E94BF26D3C182E08093DD249DC181308A
:1016C00031F4A092DD2480917F2063E0F1CF83305C
:1016D000D1F48091E3249091E42496FD02C09064BB
:1016E00001C09F7B8093E3249093E4240E94CA501E
:1016F0008091DF2490E00E94F0498091DD2490E009
:101700000E941B42ABC1843009F0A8C10E94D63FA1
:10171000A5C18091DD24813009F448C0813038F0C2
:10172000823009F46FC0833009F098C198C060918D
:1017300065207091662080916720909168202AE052
:1017400030E040E050E00E94B2606093652070930A
:101750006620809367209093682061587649884975
:10176000904060F080E896E9A8E9B0E080936520B9
:1017700090936620A0936720B093682080917C208E
:10178000815080937C20883011F4B0927C2080912D
:101790007C20843011F4A0927C2080917C208230C7
:1017A00008F0DFC082E080937C20DBC080916B205A
:1017B00090916C209C01B3E0220F331FBA95E1F7A2
:1017C000880F991F280F391F20936B2030936C20AE
:1017D0002151374230F080E197E280936B20909363
:1017E0006C2080917D20815080937D20883011F481
:1017F000B0927D2080917D20863008F055CF3092C8
:101800007D2052CF80916D2090916E209C01F3E05D
:10181000220F331FFA95E1F7880F991F280F391F00
:1018200020936D2030936E202151374234F0A0E197
:10183000B7E2A0936D20B0936E2080917E208150FE
:1018400080937E20883011F4B0927E2080917E209B
:10185000863010F430927E2080917E2027CF8091B8
:10186000DE24813009F0FAC08091712090917220BD
:101870009C0173E0220F331F7A95E1F7880F991FBF
:10188000280F391F2093712030937220253631059F
:1018900030F084E690E080937120909372208091E4
:1018A0007F20815080937F208D3019F48CE08093CD
:1018B0007F2080917F208B3008F0C8C0C0927F20AD
:1018C000C5C08091DD24823009F474C0833030F4C7
:1018D000882371F0813009F0C1C046C0843009F41A
:1018E00043C0843008F48CC0853009F0B7C062C0B2
:1018F00060916520709166208091672090916820AA
:101900002AE030E040E050E00E940461C901DA01C1
:101910008093652090936620A0936720B093682001
:101920000097A105B10541F44092652050926620D0
:10193000609267207092682080917C208F5F8093F6
:101940007C20843011F480927C2080917C2088302F
:1019500011F490927C2080917C208C3010F0C09209
:101960007C2080917C20A2CE80916B2090916C2075
:101970006AE070E00E94DD6060936B2070936C20E1
:101980006115710521F4E0926B20F0926C2080913A
:101990007D208F5F80937D20883011F490927D2090
:1019A00080917D208C3010F0C0927D2080917D2030
:1019B00061E07ECE80916D2090916E206AE070E0B3
:1019C0000E94F16060936D2070936E2016161706CA
:1019D00024F0E0926D20F0926E2080917E208F5F47
:1019E00080937E20883011F490927E2080917E201A
:1019F0008C3010F0C0927E2080917E2062E058CE24
:101A00008091DE24813051F5809171209091722077
:101A10006AE070E00E94DD60609371207093722034
:101A20006115710521F4E0927120F092722080918D
:101A30007F208F5F80937F208D3011F420927F2054
:101A400080917F208F3010F020927F2080917F2026
:101A50002DCE0E945B2702C00E9472010F5F0031F1
:101A600008F4F4CC00E0F2CC1F920F920FB60F9264
:101A700008B60F9209B60F920BB60F92112418BE3A
:101A800019BE1BBEFF920F931F932F933F934F934B
:101A90005F936F937F938F939F93AF93BF93EF93D6
:101AA000FF93A091E624B091E724109741F4809130
:101AB000E22482FF04C080E8E0E4F6E0868300E6EA
:101AC00016E098E0F92EF801F682A85FB64D8C91E9
:101AD0000E94F14DE091E624F091E724E85FFA4D91
:101AE00080810E94F14DF801F582F682E091E624B2
:101AF000F091E724E85FFE4C80810E94F14DE09177
:101B0000E624F091E724E85FF24D80810E94F14DD8
:101B1000F801F58284E0E0E4F6E087838091E62432
:101B20009091E72401968093E6249093E724885EC1
:101B3000934008F44AC0F8941092400A1092000BA7
:101B4000E0E4F6E088E0868384E8858360E070E086
:101B500080E090E040E00E943D4E60E070E080E078
:101B600090E041E00E943D4E1092E6241092E7245E
:101B700086E063E00E94BF268AE490E20E94EC26A1
:101B80008091E024882341F48091E1248830C1F4DD
:101B90008091CA2060E016C0813041F48091E12438
:101BA000883071F48091CB2061E00CC0823041F428
:101BB0008091E124883021F48091CC2062E002C041
:101BC00080E163E00E94BF267894FF91EF91BF917E
:101BD000AF919F918F917F916F915F914F913F91C5
:101BE0002F911F910F91FF900F900BBE0F9009BE88
:101BF0000F9008BE0F900FBE0F901F9018951F9268
:101C00000F920FB60F9208B60F9209B60F920BB64D
:101C10000F92112418BE19BE1BBEFF920F931F9383
:101C20002F933F934F935F936F937F938F939F93E4
:101C3000AF93BF93EF93FF93A091EF24B091F02463
:101C4000109749F48091E22482FF0DC080E8E0E41F
:101C5000F6E0868308C021E0A43FB20721F480E8C3
:101C6000E0E4F6E0858300E616E028E0F22EF801D5
:101C7000F682A85FB64D8C910E94F14DE091EF2461
:101C8000F091F024E85FFA4D80810E94F14DF80157
:101C9000F582F682E091EF24F091F024E85FFE4CAB
:101CA00080810E94F14DE091EF24F091F024E85FF3
:101CB000F24D80810E94F14DF801F58284E0E0E46C
:101CC000F6E087838091EF249091F0240196809331
:101CD000EF249093F024885E934020F01092EF243C
:101CE0001092F024FF91EF91BF91AF919F918F914E
:101CF0007F916F915F914F913F912F911F910F9124
:101D0000FF900F900BBE0F9009BE0F9008BE0F9072
:101D10000FBE0F901F9018951F920F920FB60F9243
:101D200008B60F9209B60F920AB60F920BB60F9231
:101D3000112418BE19BE1ABE1BBEFF920F931F932B
:101D40002F933F934F935F936F937F938F939F93C3
:101D5000AF93BF93CF93DF93EF93FF9380912002D4
:101D60008068E0E0F2E080A38091060280FFFCCF73
:101D70002091240230912502369527953695279596
:101D800081E0E0E0F2E0868382E02030380758F01E
:101D90008091E3249091E42491FD05C080E8E0E483
:101DA000F6E0858308C08091E22482FF04C080E8C9
:101DB000E0E4F6E086838091F124E901C85FDA4D22
:101DC000882359F500E616E048E0F42EF801F68283
:101DD000C050DC4F8881C050D44080640E94F14DD7
:101DE00088810E94F14DF801F582F682C050D44FEF
:101DF000888180640E94F14DC050D44088810E9447
:101E0000F14DF801F58284E0E0E4F6E0858380910D
:101E1000F1248F5F8093F12427C000E616E038E0BC
:101E2000F32EF801F682C050DC4F8881C050D440B8
:101E300080680E94F14D88810E94F14DF801F58281
:101E4000F682C050D44F888180680E94F14DC05006
:101E5000D44088810E94F14DF801F58284E0E0E4ED
:101E6000F6E086831092F124FF91EF91DF91CF91FC
:101E7000BF91AF919F918F917F916F915F914F91A2
:101E80003F912F911F910F91FF900F900BBE0F90DC
:101E90000ABE0F9009BE0F9008BE0F900FBE0F90A4
:101EA0001F9018951F920F920FB60F9208B60F92BF
:101EB00009B60F920BB60F92112418BE19BE1BBEA5
:101EC0002F933F934F935F936F937F938F939F9342
:101ED000AF93BF93EF93FF930E94C725FF91EF91BC
:101EE000BF91AF919F918F917F916F915F914F9132
:101EF0003F912F910F900BBE0F9009BE0F9008BE1F
:101F00000F900FBE0F901F9018951F920F920FB653
:101F10000F9208B60F9209B60F920BB60F921124CA
:101F200018BE19BE1BBEDF92EF92FF920F931F9354
:101F30002F933F934F935F936F937F938F939F93D1
:101F4000AF93BF93EF93FF93809120028068E0E00E
:101F5000F2E080A38091060280FFFCCF0091240272
:101F600010912502169507951695079581E0E0E0FA
:101F7000F2E0868382E00030180768F08091E32465
:101F80009091E42490FF02C092FD05C080E8E0E457
:101F9000F6E0858308C08091E22482FF04C080E8D7
:101FA000E0E4F6E086838091DF248430E9F0893034
:101FB00091F1823009F045C0F0E8EF2EF6E0FF2EF7
:101FC000E0E1DE2EF701D68281E30E94024E085F37
:101FD0001A4DF801E050FC4F80810E94024EF8013A
:101FE00080810E94024E14C070E6E72E76E0F72E44
:101FF00068E0D62EF701D682085F1A4DF801E0504E
:10200000FC4F80810E94F14DF80180810E94F14DCA
:10201000F701D58216C00050124058F08091E32499
:102020009091E42493FD05C080E8E0E4F6E0858328
:1020300008C08091E22482FF04C080E8E0E4F6E07A
:102040008683FF91EF91BF91AF919F918F917F9187
:102050006F915F914F913F912F911F910F91FF9041
:10206000EF90DF900F900BBE0F9009BE0F9008BE4F
:102070000F900FBE0F901F9018951F920F920FB6E2
:102080000F9208B60F9209B60F920BB60F92112459
:1020900018BE19BE1BBE2F933F934F935F936F9350
:1020A0007F938F939F93AF93BF93EF93FF93E0E45E
:1020B000F6E088E0868380E88583E0E0F8E010A21F
:1020C00011A28091E3249091E42483709070019791
:1020D00011F40E946D43FF91EF91BF91AF919F91D9
:1020E0008F917F916F915F914F913F912F910F90C1
:1020F0000BBE0F9009BE0F9008BE0F900FBE0F9041
:102100001F9018951F920F920FB60F9208B60F925C
:1021100009B60F920BB60F92112418BE19BE1BBE42
:10212000EF92FF920F931F932F933F934F935F93E1
:102130006F937F938F939F93AF93BF93EF93FF938F
:10214000F8948091080786FF9AC18091DF24882344
:1021500009F069C080917B209091DE24882321F5CD
:102160009230B1F0933030F4992361F0913009F05E
:102170004CC00BC0943091F0943068F0953009F069
:1021800044C00FC00E94120640C00E94A8053DC076
:102190000E9431053AC00E94C80437C00E94270738
:1021A00034C00E945D0431C0963078F500E416E03A
:1021B00080E4F801868380E8858382E092E20E94D1
:1021C000094E60E070E080E090E040E00E943D4E0B
:1021D00080E090E060E00E94454F28E0F80126830F
:1021E00080E49FE1FC013197F1F7F8012583019725
:1021F000F1F78AE086830E947F5386E063E00E94C5
:10220000BF2680E590E20E94EC2680917B208F5FC4
:1022100080937B20823010F010927B208091DD240F
:1022200090E00E941B428091DF24883009F047C073
:102230008091E32482FD43C08091000A8823A9F4A1
:102240008091000B882389F48091C6209091C7204B
:102250006091E5240E9404530E947F5386E063E06E
:102260000E94BF268AE490E20CC01092000A1092ED
:10227000000B0E947F5386E063E00E94BF268BE53F
:1022800090E20E94EC268091E124893019F480E1EB
:1022900063E013C08091E024882321F48091A8207A
:1022A00060E00BC0813021F48091A92061E005C07D
:1022B000823029F48091CC2062E00E94BF261091E8
:1022C000DF24183009F06EC08091E32482FD02C043
:1022D0000C94FD248091E6249091E724892BF9F455
:1022E0000E947F5386E063E00E94BF2680E090E278
:1022F0000E94EC2680E163E00E94BF26E0E4F6E065
:1023000094E0968315838091E524882321F49093AB
:10231000400A0C94FD249093000B0C94FD248091B2
:10232000400A8823C1F48091000B8823A1F4809196
:10233000E524882321F484E08093400A03C084E0EC
:102340008093000B0E947F5386E063E00E94BF26CB
:102350008AE490E20CC01092400A1092000B0E9496
:102360007F5386E063E00E94BF268BE590E20E94E7
:10237000EC268091E124893009F452C08091E02458
:10238000882319F48091A82043C0813019F48091EA
:10239000A92044C0823011F00C94FD248091CC20FF
:1023A00062E001C5173011F00C94FD248091E32404
:1023B0009091E4248370907082309105A1F5E0E45F
:1023C000F6E08091480683FD13C088E08583809104
:1023D000E22482FF02C080EC85830E947F538CE060
:1023E00063E00E94BF2686E090E20E94EC260AC0CD
:1023F0008091480683FF06C088E4868380E8858351
:102400000E946D438091E024882321F48091D6209E
:1024100060E0C9C4813021F48091D72061E0C3C459
:1024200080E163E0C0C4019711F00C94FD240E9488
:102430007F538CE063E00E94BF2686E090E20E941A
:10244000EC268091D6206091E0240E94BF26E0E037
:10245000F8E010A211A28091E22482FF04C080E87B
:10246000E0E4F6E0868382E0E0E0F8E08783E0E401
:10247000F6E081E0818788E085830C94FD248091DB
:10248000E124882309F093C48091DD24813009F48C
:102490002DC1813040F0823009F4AAC2833011F09E
:1024A0000C94FD2415C48091080784FF04C080911A
:1024B000080785FF08C08091080784FD67C08091E8
:1024C000080785FF63C02091652030916620409108
:1024D0006720509168208091612090916220A091A6
:1024E0006320B0916420280F391F4A1F5B1F20937F
:1024F0006120309362204093632050936420809148
:10250000DE24823051F4215432444F40504080F157
:1025100080E492E4AFE0B0E021C0833051F4215A6E
:1025200036484140504020F180EA96E8A1E0B0E012
:1025300015C0843051F42158364948495040C0F004
:1025400080E896E9A8E9B0E009C021503D42414346
:10255000514070F080E09DE2A1E3B1E08093612002
:1025600090936220A0936320B09364200E947F53D5
:102570008091DE24813009F08FC04091612050911C
:10258000622060916320709164207AC08091080776
:1025900084FF04C08091080785FD0CC08091080766
:1025A00084FF02C00C94FD248091080785FF02C0BF
:1025B0000C94FD2440916120509162206091632031
:1025C000709164208091652090916620A091672091
:1025D000B0916820481B590B6A0B7B0B409361201C
:1025E000509362206093632070936420DB01CA01E2
:1025F0000197A109B10980509A45A246B240E0F185
:1026000081E090E0A0E0B0E08093612090936220B0
:10261000A0936320B093642061E070E080E090E0DC
:102620000E94304C0E947F538091DE2420916120D3
:10263000309162204091632050916420833031F4C6
:10264000CA01B90140E00E94874F0CC002E0220F8E
:10265000331F441F551F0A95D1F7CA01B90140E045
:102660000E943D4E109261201092622010926320D1
:10267000109264200C94FD248091DE24813061F45A
:1026800080916F20909170200E94E35380936F207F
:10269000909370200E948D498091DE2420916120CA
:1026A000309162204091632050916420833031F456
:1026B000CA01B90140E00E94874F0CC012E0220F0E
:1026C000331F441F551F1A95D1F7CA01B90140E0C5
:1026D0000E943D4E60916120709162208091632044
:1026E000909164200E94304C0C94FD2480916920CC
:1026F00090916A208093D4249093D5248091DE24F5
:10270000843009F098C08091080784FF04C080914C
:10271000080785FF08C08091080784FD1FC08091CD
:10272000080785FF1BC08091D8249091D92420915F
:102730006B2030916C20820F931F8093D82490934C
:10274000D924815197420CF450C080E197E28093E4
:10275000D8249093D9240E947F5347C080910807C2
:1027600084FF04C08091080785FD08C08091080798
:1027700084FD3BC08091080785FD37C02091D82497
:102780003091D92480916B2090916C20281B390BBB
:102790002093D8243093D92459ED243035079CF464
:1027A00084E099ED8093D8249093D92480EF98ED1C
:1027B0008093DA249093DB240E947F538091DA2463
:1027C0009091DB240EC08091DA249091DB24439613
:1027D0008217930754F0C90144978093DA249093A9
:1027E000DB2462E070E00E946D4A4091D824509151
:1027F000D9242091DA243091DB24CA01821B930B67
:10280000959587958093692090936A20240F351FB2
:10281000359527952093D6243093D7246091D424DE
:102820007091D5240E94595A8091D8249091D9242E
:1028300061E070E080C18091080784FF04C080914E
:10284000080785FF08C08091080784FD75C0809146
:10285000080785FF71C080916B2090916C202091BA
:10286000692030916A20820F931F80936920909392
:102870006A208151974240F080E197E2809369207D
:1028800090936A200E947F538091692090916A20E2
:102890000A9760F480916B2090916C200A9730F435
:1028A0008AE090E08093692090936A202091D6245A
:1028B0003091D72412161306BCF440916920509130
:1028C0006A20240F351F2151374268F180E197E2D9
:1028D000841B950B8093D6249093D7246091D424A5
:1028E0007091D524CA0117C037FF1DC0809169209F
:1028F00090916A20281B390B205F384DA0F480513D
:1029000097428093D6249093D724805F984D60910E
:10291000D4247091D5240E94595A8091D624909144
:10292000D7240E94FD4A6091D4247091D5248091CF
:10293000692090916A203DC08091080784FF04C0FF
:102940008091080785FD08C08091080784FD39C083
:102950008091080785FD35C02091692030916A205B
:1029600080916B2090916C20281B390B209369205B
:1029700030936A20C9010A976091D4247091D524BC
:1029800087519E44A8F08AE090E08093692090935C
:102990006A200E94595A0E947F5380916920909129
:1029A0006A200E94A04B1092692010926A2009C0F0
:1029B000C9010E94595A8091692090916A200E9411
:1029C000A04B8091D6249091D724409169205091BA
:1029D0006A209C01240F351F2093D8243093D924DA
:1029E000841B950B8093DA249093DB240C94FD24B4
:1029F0008091692090916A208093D4249093D5246B
:102A00008091DE24843009F09AC08091080784FF09
:102A100004C08091080785FF08C08091080784FDE5
:102A20003CC08091080785FF38C020916D2030910F
:102A30006E208091DA249091DB24280F391F209397
:102A4000DA243093DB2486E22D3F38079CF08CEFAC
:102A500096E28093DA249093DB2480E197E28093DE
:102A6000D8249093D9240E947F538091D8249091A8
:102A7000D9240EC08091D8249091D9244397281747
:102A80003907A4F1C90144968093D8249093D9249E
:102A900061E070E00E946D4A29C08091080784FFC0
:102AA00004C08091080785FD08C08091080784FD57
:102AB0001DC08091080785FD19C08091DA2490918E
:102AC000DB2420916D2030916E20821B930B80932C
:102AD000DA249093DB24805F984D44F480EF98EDE6
:102AE0008093DA249093DB240E947F534091D82472
:102AF0005091D9242091DA243091DB24CA01821B21
:102B0000930B959587958093692090936A20240F65
:102B1000351F359527952093D6243093D72460917F
:102B2000D4247091D5240E94595A8091DA2490912E
:102B3000DB2462E070E00E946D4A0C94FD248091D9
:102B4000080784FF04C08091080785FF08C08091B2
:102B5000080784FD2CC08091080785FF28C02091BC
:102B60006D2030916E208091D6249091D724280F2B
:102B7000391F2093D6243093D724F7E221313F0721
:102B80001CF080E197E237C0121613060CF06AC001
:102B90008091692090916A20820F931F8151974202
:102BA00008F460C080E197E2821B930B3BC08091E8
:102BB000080784FF04C08091080785FD08C0809144
:102BC000080784FD4FC08091080785FD4BC0209108
:102BD000D6243091D72480916D2090916E20281BAF
:102BE000390B2093D6243093D72458ED203F350756
:102BF0004CF480EF98ED8093D6249093D7240E94D4
:102C00007F5330C037FF2EC08091692090916A2099
:102C1000F901E81BF90BCF01805F984D18F5C90148
:102C2000805F984D8093692090936A200A9730F4D2
:102C30008AE090E08093692090936A208091DE245E
:102C4000863081F06091D4247091D52480916920E0
:102C500090916A200E94595A8091692090916A202F
:102C60000E94A04B8091DE24863071F42091D624FE
:102C70003091D724C901880F991F820F931F0497A1
:102C800061E00E941B500AC06091D4247091D52449
:102C90008091692090916A200E94595A8091D6248F
:102CA0009091D7244091692050916A209C01240F73
:102CB000351F2093D8243093D9249C01241B350B35
:102CC0002093DA243093DB240E94FD4A0C94FD24E7
:102CD0008091DE24813011F00C94FD24809108074E
:102CE00084FF04C08091080785FF08C08091080711
:102CF00084FD18C08091080785FF14C08091712061
:102D00009091722020916F2030917020820F931F3C
:102D100080936F20909370208152934060F180E205
:102D200093E023C08091080784FF04C080910807C6
:102D300085FD08C08091080784FD1DC080910807AB
:102D400085FD19C080916F20909170202091712095
:102D500030917220821B930B80936F209093702090
:102D6000883C910540F488EC90E080936F2090932C
:102D700070200E947F5340916120509162206091A9
:102D800063207091642080916F20909170200E9448
:102D9000E35380936F20909370200E948D4980911F
:102DA0007F206091DD240E94BF260C94FD24813099
:102DB00009F07CC180910725882329F0813011F02A
:102DC0000C94FD245CC08091080784FF04C08091AE
:102DD000080785FF08C08091080784FD18C080910E
:102DE000080785FF14C0809175209091762020916E
:102DF000732030917420820F931F809373209093DF
:102E00007420855D934068F184ED93E024C0809147
:102E1000080784FF04C08091080785FD08C08091E1
:102E2000080784FD1EC08091080785FD1AC08091A7
:102E30007320909174202091752030917620821B10
:102E4000930B80937320909374204497855D9340F7
:102E500040F084E190E080937320909374200E946E
:102E60007F5380917320909174200E94955380919C
:102E70007320909174200E942A490C94FD24809123
:102E8000080784FF04C08091080785FF08C080916F
:102E9000080784FD5BC08091080785FF57C020911B
:102EA000792030917A208091772090917820280F96
:102EB000391F209377203093782024363105E8F1AC
:102EC0004091DC24423078F5C9016AE070E00E944C
:102ED000DD60609377207093782081E090E08093AC
:102EE000792090937A20942F9F5F9093DC24809197
:102EF00081208F5F809381208B3029F4923019F4E8
:102F00008CE080938120909181209C30B0F0809162
:102F1000DC24813011F48BE003C09D3070F08CE034
:102F2000809381200AC0423041F484E690E080938F
:102F30007720909378200E947F5380917720909102
:102F400078206091DC240E94D759A5C080910807A1
:102F500084FF04C08091080785FD08C080910807A0
:102F600084FD99C08091080785FD95C04091792026
:102F700050917A204A30510521F5209177203091E7
:102F800078202A30310589F48091DC24882369F087
:102F900089E090E0809377209093782081E090E022
:102FA0008093792090937A2016C02431310548F41B
:102FB0008AE090E080937720909378200E947F535E
:102FC0000AC08091772090917820841B950B809384
:102FD00077209093782020917720309178202A30A4
:102FE000310508F03FC04091DC244423D9F1C901E8
:102FF00063E0880F991F6A95E1F7220F331F820F54
:10300000931F80937720909378208AE090E08093BC
:10301000792090937A20942F91509093DC24809182
:1030200081208150809381208B3029F4923019F4D3
:103030008AE0809381208091DC24813019F48AE039
:1030400080938120909181209B30E8F48091DC2452
:10305000882311F48BE003C09A30A8F48AE08093AF
:10306000812011C02A50304027553A4E60F080919F
:10307000DC24882341F48AE090E0809377209093C9
:1030800078200E947F5380917720909178206091E2
:10309000DC240E9464596091DC2480917720909117
:1030A000782070E00E949A480C94FD24823009F048
:1030B0009CC08091E024882329F0813011F00C9489
:1030C000FD2444C08091080784FF04C08091080754
:1030D00085FF08C08091080784FD11C08091080712
:1030E00085FF0DC08091882090918720890F809363
:1030F0008720853608F184E6809387201BC0809165
:10310000080784FF04C08091080785FD08C08091EE
:10311000080784FD11C08091080785FD0DC08091CE
:10312000872090918820891B80938720853620F006
:10313000109287200E947F538091872090E00E9408
:10314000F2508091872090E00C949A248091080797
:1031500084FF04C08091080785FF08C0809108079C
:1031600084FD19C08091080785FF15C080918420D7
:10317000909185202091822030918320820F931F8F
:10318000809382209093832081529E4410F40C946B
:10319000EB240C94BE248091080784FF04C0809126
:1031A000080785FD0CC08091080784FF02C00C94BD
:1031B000EB248091080785FF02C00C94EB248091DA
:1031C0008220909183202091842030918520821B41
:1031D000930B8093822090938320019780529E448A
:1031E00010F40C94EB240C94E324833009F074C1A4
:1031F0008091E024882329F0813011F00C94FD2483
:103200001CC18091080784FF04C08091080785FFD6
:1032100008C08091080784FD42C08091080785FF9F
:103220003EC020918D2030918E2040918F20509172
:1032300090208091892090918A20A0918B20B0913C
:103240008C20280F391F4A1F5B1F20938920309341
:103250008A2040938B2050938C208091DE248230F2
:1032600059F42152314A4740504008F453C080E29B
:1032700091EAA7E0B0E00AC02058364948495040DA
:1032800008F448C08FE796E9A8E9B0E08093892068
:1032900090938A20A0938B20B0938C2039C080918A
:1032A000080784FF04C08091080785FD08C080914D
:1032B000080784FD2FC08091080785FD2BC08091F1
:1032C000892090918A20A0918B20B0918C20209110
:1032D0008D2030918E2040918F2050919020821B24
:1032E000930BA40BB50B8093892090938A20A09315
:1032F0008B20B0938C2081509A45A246B24050F06A
:103300001092892010928A2010928B2010928C208B
:103310000E947F53E0908920F0908A2000918B20BA
:1033200010918C2020916120309162204091632087
:1033300050916420E216F3060407150778F0215037
:103340003040404050402093892030938A20409361
:103350008B2050938C200E947F5335C06091DE24D7
:10336000623090F480E09DE2A1E3B1E0821B930B18
:10337000A40BB50BE816F9060A071B0728F081E035
:103380009DE2A1E3B1E013C06230E9F480E492E48D
:10339000AFE0B0E0821B930BA40BB50BE816F90667
:1033A0000A071B0780F081E492E4AFE0B0E0821BE3
:1033B000930BA40BB50B8093892090938A20A09344
:1033C0008B20B0938C208091DE24813019F54091C0
:1033D00061205091622060916320709164208091FF
:1033E000892090918A20A0918B20B0918C20840F0D
:1033F000951FA61FB71F81589649A849B04050F0A5
:1034000080916F20909170200E94E35380936F20F1
:10341000909370206091892070918A2080918B20F8
:1034200090918C200E94EF516091892070918A20A8
:1034300080918B2090918C207EC68091080784FF1C
:1034400004C08091080785FF08C08091080784FDAB
:1034500019C08091080785FF15C080918420909144
:1034600085202091822030918320820F931F8093AA
:1034700082209093832081529E4410F40C94EB247C
:103480000C94BE248091080784FF04C08091080733
:1034900085FD0CC08091080784FF02C00C94EB24CA
:1034A0008091080785FF02C00C94EB248091822054
:1034B000909183202091842030918520821B930B52
:1034C0008093822090938320019780529E4410F431
:1034D0000C94EB240C94E324843009F0E6C01092A1
:1034E000400884E690E020E233E0F9013197F1F7FB
:1034F0000197D9F78091E024882321F0813009F0E9
:10350000CFC06EC08091080784FF04C08091080777
:1035100085FF08C08091080784FD1CC080910807C2
:1035200085FF18C080919320909194202091912044
:1035300030919220820F931F80939120909392203C
:103540008956914070F188E691E0809391209093A4
:10355000922025C08091080784FF04C0809108074D
:1035600085FD08C08091080784FD1BC08091080775
:1035700085FD17C0809191209091922020919320F9
:1035800030919420821B930B8093912090939220F2
:103590008956914030F010929120109292200E9412
:1035A0007F5380919120909192200E947652609159
:1035B000612070916220809163209091642002E0EC
:1035C000660F771F881F991F0A95D1F740E00E9468
:1035D0003D4E80919120909192200E94C14760C001
:1035E0008091080784FF04C08091080785FF08C008
:1035F0008091080784FD18C08091080785FF14C0DA
:103600008091842090918520209182203091832088
:10361000820F931F809382209093832081529E4437
:1036200068F180E29EE424C08091080784FF04C012
:103630008091080785FD08C08091080784FD1EC0A1
:103640008091080785FD1AC0809182209091832087
:103650002091842030918520821B930B80938220BF
:1036600090938320019780529E4440F081E090E047
:1036700080938220909383200E947F5388E0E0E62D
:10368000F6E0858380918220909183200E94A55648
:10369000809182209091832061E070E00E941F4819
:1036A00084E0809340080C94FD24853009F0D3C257
:1036B0008091E024813009F4C0C0813028F082304C
:1036C00011F00C94FD2472C18091080784FF04C09E
:1036D0008091080785FF08C08091080784FD3AC0E3
:1036E0008091080785FF36C02091652030916620C3
:1036F00040916720509168208091612090916220D4
:10370000A0916320B0916420280F391F4A1F5B1FCE
:103710002093612030936220409363205093642073
:103720008091DE24823059F4215432444F4050407D
:1037300008F452C080E492E4AFE0B0E043C021500E
:103740003D424143514008F447C080E09DE2A1E37F
:10375000B1E038C08091080784FF04C08091080759
:1037600085FD08C08091080784FD36C08091080758
:1037700085FD32C08091612090916220A0916320EC
:10378000B09164202091652030916620409167209F
:1037900050916820821B930BA40BB50B8093612082
:1037A00090936220A0936320B09364200197A109B5
:1037B000B10980509A45A246B24070F081E090E095
:1037C000A0E0B0E08093612090936220A0936320FA
:1037D000B09364200E947F536091612070916220B9
:1037E000809163209091642012E0660F771F881FFC
:1037F000991F1A95D1F741E00E943D4E8091DE2439
:10380000813091F440916120509162206091632059
:103810007091642080916F20909170200E94E353FA
:1038200080936F209093702060916120709162204E
:1038300080916320909164207EC48091080784FF6A
:1038400004C08091080785FF08C08091080784FDA7
:103850003AC08091080785FF36C020919F203091A3
:10386000A0204091A1205091A22080919B20909176
:103870009C20A0919D20B0919E20280F391F4A1FA7
:103880005B1F20939B2030939C2040939D2050935E
:103890009E208091DE24823059F4215432444F40DE
:1038A000504008F452C080E492E4AFE0B0E043C07E
:1038B00021503D424143514008F447C080E09DE221
:1038C000A1E3B1E038C08091080784FF04C0809173
:1038D000080785FD08C08091080784FD36C08091E7
:1038E000080785FD32C080919B2090919C20A0917B
:1038F0009D20B0919E2020919F203091A02040914A
:10390000A1205091A220821B930BA40BB50B809396
:103910009B2090939C20A0939D20B0939E20019784
:10392000A109B10980509A45A246B24070F081E0E9
:1039300090E0A0E0B0E080939B2090939C20A09327
:103940009D20B0939E200E947F5360919B20709198
:103950009C2080919D2090919E20B2E0660F771F61
:10396000881F991FBA95D1F740E00E943D4E809183
:10397000DE24813091F440919B2050919C206091F5
:103980009D2070919E2080916F20909170200E94C8
:10399000E35380936F209093702060919B207091EF
:1039A0009C2080919D2090919E2070C48091E32462
:1039B00084FF02C00C94FD248091080784FF04C09A
:1039C0008091080785FF08C08091080784FD7EC0AC
:1039D0008091080785FF7AC02091A5203091A6200C
:1039E0008091A3209091A420820F931F8093A32005
:1039F0009093A42047E28031940708F467C0409177
:103A0000A720443009F45AC06AE070E00E94DD60EB
:103A10006093A3207093A42022303105A0F0C90147
:103A20006AE070E00E94DD606093A5207093A6209C
:103A3000423049F49091AA20892F8950823018F49D
:103A40009F5F9093AA209091A7209F5F9093A720BB
:103A50008091AA208F5F8093AA20893039F499231E
:103A600011F0933019F48AE08093AA208091AA2063
:103A70008A3049F48091A720813011F0843019F404
:103A80008BE08093AA208091AA208B3049F480910A
:103A9000A720823011F0853019F48CE08093AA20A1
:103AA0008091AA208D3018F08CE08093AA2080911C
:103AB000AA206091E0240E94BF2608C080E197E21E
:103AC0008093A3209093A4200E947F5380910807A5
:103AD00084FF04C08091080785FD08C08091080715
:103AE00084FDA7C08091080785FDA3C02091A52073
:103AF0003091A62053E0283E350761F48091A32041
:103B00009091A420805D974028F42093A3203093C7
:103B1000A4200AC08091A3209091A420821B930B23
:103B20008093A3209093A4202091A3203091A420DF
:103B3000F3E0283E3F0708F06BC04091A7204423E4
:103B400009F466C0C901A3E0880F991FAA95E1F79F
:103B5000220F331F820F931F8093A3209093A420E2
:103B60008091A5209091A6209C01E3E0220F331FB5
:103B7000EA95E1F7880F991F280F391F2093A52098
:103B80003093A620433049F49091AA20892F8A507F
:103B9000823018F491509093AA209091A7209150D0
:103BA0009093A7208091AA2081508093AA208930E9
:103BB00039F4992311F0933019F488E08093AA2006
:103BC0008091AA208A3049F48091A720813011F099
:103BD000843019F489E08093AA208091AA208B3048
:103BE00049F48091A720823011F0853019F48AE0E1
:103BF0008093AA208091AA20883018F488E08093CE
:103C0000AA208091AA206091E0240E94BF2611C0C2
:103C10002A50304027553A4E60F08091A7208823E3
:103C200041F48AE090E08093A3209093A4200E9426
:103C30007F538091A3209091A4206091A7200E949F
:103C4000C3526091A7208091A3209091A42070E09E
:103C500042E050E0B7C1863009F0B7C18091E0245E
:103C6000882321F0813009F0C8C65AC08091080726
:103C700084FF04C08091080785FF08C08091080771
:103C800084FD1CC08091080785FF18C08091AD207D
:103C90009091AE202091AB203091AC20820F931FE9
:103CA0008093AB209093AC208956914070F188E6C8
:103CB00091E08093AB209093AC2025C080910807C1
:103CC00084FF04C08091080785FD08C08091080723
:103CD00084FD1BC08091080785FD17C08091AB2033
:103CE0009091AC202091AD203091AE20821B930B9F
:103CF0008093AB209093AC208956914030F0109285
:103D0000AB201092AC200E947F538091AB20909109
:103D1000AC200E9430568091AB209091AC200AC616
:103D20008091E32485FD69C68091080784FF04C063
:103D30008091080785FF08C08091080784FD7EC038
:103D40008091080785FF7AC02091B1203091B22080
:103D50008091AF209091B020820F931F8093AF206D
:103D60009093B020F7E280319F0708F467C040913C
:103D7000B320443009F45AC06AE070E00E94DD606C
:103D80006093AF207093B02022303105A0F0C901BC
:103D90006AE070E00E94DD606093B1207093B22011
:103DA000423049F49091B520892F8950823018F41F
:103DB0009F5F9093B5209091B3209F5F9093B32025
:103DC0008091B5208F5F8093B520893039F4992395
:103DD00011F0933019F48AE08093B5208091B520DA
:103DE0008A3049F48091B320813011F0843019F485
:103DF0008BE08093B5208091B5208B3049F4809181
:103E0000B320823011F0853019F48CE08093B52016
:103E10008091B5208D3018F08CE08093B520809192
:103E2000B5206091E0240E94BF2608C080E197E29F
:103E30008093AF209093B0200E947F538091080719
:103E400084FF04C08091080785FD08C080910807A1
:103E500084FDA7C08091080785FDA3C02091B120F3
:103E60003091B22043E0283E340761F48091AF20C6
:103E70009091B020805D974028F42093AF2030933C
:103E8000B0200AC08091AF209091B020821B930B8C
:103E90008093AF209093B0202091AF203091B0203C
:103EA00083E0283E380708F06BC04091B3204423DC
:103EB00009F466C0C90163E0880F991F6A95E1F7AC
:103EC000220F331F820F931F8093AF209093B02057
:103ED0008091B1209091B2209C0103E0220F331F0A
:103EE0000A95E1F7880F991F280F391F2093B120F9
:103EF0003093B220433049F49091B520892F8A50F5
:103F0000823018F491509093B5209091B320915045
:103F10009093B3208091B52081508093B520893053
:103F200039F4992311F0933019F488E08093B52087
:103F30008091B5208A3049F48091B320813011F00E
:103F4000843019F489E08093B5208091B5208B30BE
:103F500049F48091B320823011F0853019F48AE061
:103F60008093B5208091B520883018F488E0809344
:103F7000B5208091B5206091E0240E94BF2611C039
:103F80002A50304027553A4E60F08091B320882364
:103F900041F48AE090E08093AF209093B0200E949B
:103FA0007F538091AF209091B0206091B3200E9408
:103FB000C3526091B3208091AF209091B02070E007
:103FC00041E050E00E94D04518C5883009F06DC22C
:103FD0008091E024813009F4B1C0813020F082303A
:103FE00009F00BC558C18091080784FF04C0809177
:103FF000080785FF08C08091080784FD3AC08091BA
:10400000080785FF36C02091BA203091BB2040912F
:10401000BC205091BD208091B6209091B720A091F6
:10402000B820B091B920280F391F4A1F5B1F209379
:10403000B6203093B7204093B8205093B920809198
:10404000DE24823059F4215432444F40504008F469
:1040500052C080E492E4AFE0B0E043C021503D4262
:104060004143514008F447C080E09DE2A1E3B1E044
:1040700038C08091080784FF04C08091080785FD3F
:1040800008C08091080784FD36C08091080785FD2F
:1040900032C08091B6209091B720A091B820B09105
:1040A000B9202091BA203091BB204091BC20509182
:1040B000BD20821B930BA40BB50B8093B62090936D
:1040C000B720A093B820B093B9200197A109B109F6
:1040D00080509A45A246B24070F081E090E0A0E0A6
:1040E000B0E08093B6209093B720A093B820B0930F
:1040F000B9200E947F538091DE24813091F4409159
:10410000B6205091B7206091B8207091B92080916D
:104110006F20909170200E94E35380936F209093C2
:1041200070200E94F1566091B6207091B720809166
:10413000B8209091B92040E050E0AAC080910807D3
:1041400084FF04C08091080785FF08C0809108079C
:1041500084FD3AC08091080785FF36C02091C220B7
:104160003091C3204091C4205091C5208091BE2041
:104170009091BF20A091C020B091C120280F391F7D
:104180004A1F5B1F2093BE203093BF204093C02066
:104190005093C1208091DE24823059F4215432445E
:1041A0004F40504008F452C080E492E4AFE0B0E0E9
:1041B00043C021503D424143514008F447C080E094
:1041C0009DE2A1E3B1E038C08091080784FF04C0FC
:1041D0008091080785FD08C08091080784FD36C0DE
:1041E0008091080785FD32C08091BE209091BF204C
:1041F000A091C020B091C1202091C2203091C32055
:104200004091C4205091C520821B930BA40BB50B89
:104210008093BE209093BF20A093C020B093C12074
:104220000197A109B10980509A45A246B24070F0A9
:1042300081E090E0A0E0B0E08093BE209093BF20AA
:10424000A093C020B093C1200E947F538091DE24B0
:10425000813091F44091BE205091BF206091C020E8
:104260007091C12080916F20909170200E94E35343
:1042700080936F20909370200E94F1566091BE2031
:104280007091BF208091C0209091C12041E050E00A
:104290000E949544B2C38091080784FF04C08091B6
:1042A000080785FF08C08091080784FD58C08091E9
:1042B000080785FF54C02091C8203091C920809103
:1042C000C6209091C720820F931F8093C6209093A1
:1042D000C720F7E280319F0708F4D3C04091E5245E
:1042E0004423B9F56AE070E00E94DD606093C62067
:1042F0007093C7202230310548F0C9016AE070E0B0
:104300000E94DD606093C8207093C9209091E524DD
:104310009F5F9093E5248091CC208F5F8093CC2089
:10432000893029F4992319F48AE08093CC20809174
:10433000CC208A3039F48091E524813019F48BE067
:104340008093CC208091CC208D3008F482C08CE00A
:104350007EC0413009F095C080E197E28CC0809129
:10436000080784FF04C08091080785FD08C080917C
:10437000080784FD86C08091080785FD82C02091D2
:10438000C8203091C92043E0283E340761F4809171
:10439000C6209091C720805D974028F42093C620C6
:1043A0003093C7200AC08091C6209091C720821BFD
:1043B000930B8093C6209093C7202091C620309104
:1043C000C72083E0283E380708F04AC08091E524E2
:1043D000813009F045C0C901B3E0880F991FBA9533
:1043E000E1F7220F331F820F931F8093C620909313
:1043F000C7208091C8209091C9209C01F3E0220F32
:10440000331FFA95E1F7880F991F280F391F209362
:10441000C8203093C9201092E5248091CC2081508F
:104420008093CC20893019F48AE08093CC2080914D
:10443000CC208A3039F48091E524813019F48BE066
:104440008093CC208091CC20883018F488E0809331
:10445000CC208091CC206091E0240E94BF2611C026
:104460002A50304027553A4E60F08091E524882349
:1044700041F48AE090E08093C6209093C7200E9488
:104480007F536091E5248091C6209091C72070E011
:1044900042E050E00E94C9438091C6209091C7201D
:1044A0006091E5240E940453A8C2873009F0DAC164
:1044B0008091E024882321F0813009F09EC284C0DD
:1044C0008091080784FF04C08091080785FF08C019
:1044D0008091080784FD18C08091080785FF14C0EB
:1044E0008091CF209091D0202091CD203091CE206E
:1044F000820F931F8093CD209093CE208055934CB4
:1045000068F180E593EC24C08091080784FF04C023
:104510008091080785FD08C08091080784FD1EC0B2
:104520008091080785FD1AC08091CD209091CE2002
:104530002091CF203091D020821B930B8093CD20EF
:104540009093CE2001978055934C40F081E090E00D
:104550008093CD209093CE200E947F531092400BE9
:10456000E0E4FBE010A211A288E0E0E4F6E086833C
:104570001092000BE0E0FBE010A211A28091CD2090
:104580009091CE200197E0E0F8E080A791A710A2DB
:1045900011A28091E3249091E42483709070892B80
:1045A00051F48091D1209091D220880F991F609171
:1045B000D5200E94C3528091CD209091CE2060E002
:1045C00070E00E94404719C28091080784FF04C030
:1045D0008091080785FF08C08091080784FD72C09C
:1045E0008091080785FF6EC02091D3203091D420A0
:1045F0008091D1209091D220820F931F8093D1205F
:104600009093D22047E28031940708F40EC1409184
:10461000D520443009F453C06AE070E00E94DD60A8
:104620006093D1207093D22022303105A0F0C901CF
:104630006AE070E00E94DD606093D3207093D42024
:10464000423049F49091D720892F8950823018F454
:104650009F5F9093D7209091D5209F5F9093D52016
:104660008091D7208F5F8093D720893039F49923A8
:1046700011F0933019F48AE08093D7208091D720ED
:104680008A3049F48091D520813011F0843019F4BA
:104690008BE08093D7208091D7208B3049F4809194
:1046A000D520823011F0853019F48CE08093D7202A
:1046B0008091D7208D3008F4A0C08CE09CC080E1B0
:1046C00097E2ADC08091080784FF04C0809108077D
:1046D00085FD08C08091080784FDA7C08091080768
:1046E00085FDA3C02091D3203091D42053E0283EF3
:1046F000350761F48091D1209091D220805D974060
:1047000028F42093D1203093D2200AC08091D12068
:104710009091D220821B930B8093D1209093D22032
:104720002091D1203091D220F3E0283E3F0708F0BD
:104730006BC04091D520442309F466C0C90163E0F1
:10474000880F991F6A95E1F7220F331F820F931F7D
:104750008093D1209093D2208091D3209091D42027
:104760009C0103E0220F331F0A95E1F7880F991F80
:10477000280F391F2093D3203093D420433049F49D
:104780009091D720892F8A50823018F491509093BD
:10479000D7209091D52091509093D5208091D7200B
:1047A00081508093D720893039F4992311F09330C8
:1047B00019F488E08093D7208091D7208A3049F47B
:1047C0008091D520813011F0843019F489E08093F4
:1047D000D7208091D7208B3049F48091D52082302A
:1047E00011F0853019F48AE08093D7208091D7208A
:1047F000883018F488E08093D7208091D72060918A
:10480000E0240E94BF2611C02A50304027553A4E5E
:1048100060F08091D520882341F48AE090E0809375
:10482000D1209093D2200E947F5388E0E0E4F6E00C
:1048300086838091E3249091E42483709070892B87
:1048400051F48091D1209091D220880F991F6091CE
:10485000D5200E94C3526091D5208091D1209091A3
:10486000D220ADCB8A3009F0C8C08091E32490916A
:10487000E42493FDC2C08091E024882321F081309C
:1048800009F0BBC05AC08091080784FF04C0809122
:10489000080785FF08C08091080784FD0FC080913C
:1048A000080785FF0BC08091992090919820890F6F
:1048B00080939820853608F184E61BC08091080714
:1048C00084FF04C08091080785FD08C08091080717
:1048D00084FD13C08091080785FD0FC0809198204A
:1048E00090919920891B809398208A508B3528F0CD
:1048F0008AE0809398200E947F530091982010E0D6
:10490000B801882777FD8095982F0E94F05D2AE9ED
:1049100039E94DE951EC0E94D95E20E030E446EFE0
:1049200054E40E94EA5C0E94C25D60931A03709393
:104930001B03C8010E94C14760C08091080784FF23
:1049400004C08091080785FF08C08091080784FD96
:1049500018C08091080785FF14C080918420909131
:1049600085202091822030918320820F931F809395
:1049700082209093832081529E4468F180E29EE4DD
:1049800024C08091080784FF04C08091080785FD3A
:1049900008C08091080784FD1EC08091080785FD2E
:1049A0001AC08091822090918320209184203091A0
:1049B0008520821B930B8093822090938320019704
:1049C00080529E4440F081E090E08093822090935A
:1049D00083200E947F5388E0E0E6F6E085838091A3
:1049E0008220909183200E94A556809182209091F0
:1049F000832061E070E00E941F480E946953789410
:104A0000FF91EF91BF91AF919F918F917F916F91A6
:104A10005F914F913F912F911F910F91FF90EF90D8
:104A20000F900BBE0F9009BE0F9008BE0F900FBEE7
:104A30000F901F901895E0E0F7E08FE0828380E10F
:104A4000808B818B828B838B08951F93CF93DF9311
:104A5000182F80910807806F803F09F448C080912B
:104A6000F5249091F624892B09F041C0612F70E064
:104A700061507040660F771F660F771FE0E0F0E02F
:104A800040E050E0A1E0B0E0809108079D01042ED5
:104A900002C0220F331F0A94E2F790E02823392343
:104AA000232BD1F0CA01860F971F9D0102C0220F50
:104AB000331F8A95E2F7C9018E239F23892B61F466
:104AC0008091F2249091F324822B932B8093F224F3
:104AD0009093F324E22BF32B4F5F5F4F443051054B
:104AE00099F6E093F524F093F6240E94695380919F
:104AF0000807806F803F09F046C0A091F524B0916F
:104B0000F624109709F43FC0E12FF0E03197EE0F43
:104B1000FF1FEE0FFF1F40E050E0C1E0D0E08091AA
:104B200008079E01042E02C0220F331F0A94E2F7E9
:104B300090E028233923232BE9F4CA018E0F9F1F0D
:104B4000BE0102C0660F771F8A95E2F7CB018A2368
:104B50009B23892B79F02091F2243091F324CB010F
:104B600080959095282339232093F2243093F324C1
:104B7000A823B9234F5F5F4F4430510581F6A093BE
:104B8000F524B093F624DF91CF911F910895809181
:104B9000F424823099F0833018F4813061F505C037
:104BA0008330B9F0843039F51DC0E0EEF6E080EED8
:104BB000828380E18183858381E008C0E0EEF6E0B6
:104BC00080ED828380E28183858382E00E942525B7
:104BD00018C0E0EEF6E080EB828380E48183858379
:104BE00083E0F4CFE0EEF6E080E7828380E8818323
:104BF000858384E0EBCF1092F42480EFE0EEF6E0C2
:104C000082838091F4248F5F8093F4240895E0E2FE
:104C1000F7E084818260848300C000C000C000C0CF
:104C200084818D7F848308951F93982F662321F0BC
:104C300080912407816003C0809124078E7FE0E289
:104C4000F7E08483E0E2F7E08091200784608093BE
:104C5000200780912007886080932007809120079B
:104C600080618093200780912007806280932007D5
:104C7000809124078F7D8483809124078F7E848395
:104C800080912407877F8483809124078B7F84838E
:104C900097FF04C08091240780628483192F96FFB8
:104CA00006C0809124078061E0E2F7E0848315FF6D
:104CB00006C0809124078860E0E2F7E0848314FF57
:104CC00006C0809124078460E0E2F7E084830E94BC
:104CD0000726E0E2F7E0809124078F7D84838091AE
:104CE00024078F7E848380912407877F848380912B
:104CF00024078B7F848313FF04C080912407806284
:104D0000848312FF06C0809124078061E0E2F7E00F
:104D1000848311FF06C0809124078860E0E2F7E0F9
:104D2000848310FF06C0809124078460E0E2F7E0EE
:104D300084830E940726E0E2F7E0809124078460E4
:104D40008483809124078860848380912407806114
:104D5000848380912407806284831F910895E0E416
:104D6000FFE13197F1F760E00E9414260895E0E436
:104D7000FFE13197F1F761E00E9414260895662360
:104D800011F4805809C0613011F4805405C06230BC
:104D900011F4805701C080530E94AF26089580E42B
:104DA0009FE10197F1F781E090E0089581E00E9492
:104DB000AF26089582E00E94AF260895E0E4FFE167
:104DC0003197F1F78A3021F480EC0E94AF260895E4
:104DD00061E00E9414260895CF93DF93EC0102C096
:104DE0000E94DE2689918823D9F7DF91CF9108951B
:104DF000CF93DF93EC0102C00E94DE26FE012196D4
:104E000084918823C9F7DF91CF910895DF92EF92C3
:104E1000FF920F931F93D82E00E217E0F8018081D4
:104E200081608083808182608083808184608083D0
:104E300080818860808380818061808380818062BE
:104E4000808380E094EF0197F1F784818860848308
:104E50008481846084830E94072680E09CE9019716
:104E6000F1F70E940726E12C82E0F82EC701019796
:104E7000F1F70E940726C7010197F1F7F801848135
:104E80008B7F84830E940726C7010197F1F788E290
:104E90000E94AF2688E00E94AF260E94D62686E0B8
:104EA0000E94AF268D2D0E94AF261F910F91FF907B
:104EB000EF90DF9008950F931F93CF93DF9380E1DE
:104EC000E0E0F7E083878BE08093E1241092E02418
:104ED0000E94474200E010E0C1E0D0E0A6C080910F
:104EE000F2249091F324AE01012E02C0440F551F0D
:104EF0000A94E2F784239523892B09F495C0209125
:104F0000F2243091F324CA01809590958223932353
:104F10008093F2249093F3241A30E1F11B3038F49B
:104F2000183009F46BC0193009F07AC04BC01B303F
:104F300031F01E3009F074C01092E12471C08091EC
:104F4000DE24882329F0823019F0833009F067C00D
:104F50008091E22480FD0EC081608093E22486E08F
:104F600060E00E9478508DE060E00E94BF268EE1F4
:104F700091E20DC08E708093E22486E061E00E9491
:104F800078508DE060E00E94BF2682E291E20E94AC
:104F9000EC2645C08091E22481FD0EC082608093A2
:104FA000E2248DE061E00E94BF268EE191E20E9442
:104FB000EC260E947F5333C08D708093E2248DE0F5
:104FC00061E0E1CF8091E22482FD0AC08460809399
:104FD000E2248DE062E00E94BF268EE191E209C0EA
:104FE0008B708093E2248DE062E00E94BF2682E213
:104FF00091E20E94EC260E94215411C08091E2248B
:1050000083FD05C088608093E2248FE004C0877030
:105010008093E2248EE00E9406270E9447420F5FA1
:105020008DE063E00E94BF261F5F103108F457CF68
:105030008091E124882311F010E051CF002369F121
:1050400081E190E06091E2240E94576184E690E063
:1050500020E233E0F9013197F1F70197D9F70E9487
:105060007F530E94D62684E690E020E233E0F901E7
:105070003197F1F70197D9F78BE063E00E94BF26E3
:1050800086E291E20E94EC2688E893E120E233E098
:10509000F9013197F1F70197D9F71092E1240E94B5
:1050A0003F4D80E5E0E0F7E08387DF91CF911F91EE
:1050B0000F9108952F923F924F925F926F927F923D
:1050C0008F929F92AF92BF92CF92DF92EF92FF9218
:1050D0000F931F93CF93DF9387E08093E124109287
:1050E000E024F8948091E3249091E42483709070FC
:1050F0000297A8F58091612090916220A091632091
:10510000B09164208152914AA740B04040F180E2C2
:1051100091EAA7E0B0E08093612090936220A09391
:105120006320B093642060E874E88EE190E040E092
:105130000E943D4E0E94D6260E947F538CE291E24F
:105140000E94EC268DE391E20E94EC2680E29EE430
:1051500020E233E0F9013197F1F70197D9F780E0C8
:1051600060E00E94BF268EE491E20E94EC2680E07F
:1051700061E00E94BF268FE591E20E94EC2680E06C
:1051800062E00E94BF2680E791E20E94EC2680E068
:1051900063E00E94BF2681E891E20E94EC268091A4
:1051A000DE2490E00E943F438091DF2490E00E9443
:1051B000F0498091CD209091CE2060E070E00E9477
:1051C00040476091D5208091D1209091D22070E00D
:1051D00041E050E00E94D04582E090E00E94AD4264
:1051E0000E946D430E9445532091DE24243021F417
:1051F00080E8E0EAF6E08583A0E4B6E088E416966D
:105200008C93169784E815968C9315978091E324D8
:105210009091E42483709070009729F519961C9260
:10522000199782E815968C931597E0E0F8E010A2A4
:1052300011A282E0878381E019968C93199788E008
:1052400016968C938091D1209091D2206091D52098
:10525000880F991F70E00E94C3528091DE24813034
:1052600009F047C016C081309105C1F482E8159657
:105270008C931597E0E0F8E010A211A282E08783FA
:1052800081E019968C9319978CE019968C932130B4
:1052900081F580E8E0EAF6E085832BC0029799F477
:1052A00088E016968C93169782E815968C9315973E
:1052B000E0E0F8E0178219961C9219978CE0199695
:1052C0008C9382E014C019961C92199788E0169668
:1052D0008C93169780E815968C931597E0E0F8E08C
:1052E000178219961C92199782E016968C938093D8
:1052F000E0240E9493548091E024813049F0813071
:1053000018F0823069F408C08091D62060E006C0B1
:105310008091D72061E002C080E163E00E94BF2657
:105320007894ECE02E2E78E0472E68E0362E5AE096
:10533000552E4CE0642E8091E3249091E4248370F8
:105340009070019719F4E0E4F6E0218604E010E0A3
:10535000C0E4D6E030E8C32EE12C28E0F22E92E043
:10536000D92E82E8782EB0E28B2EB1EA9B2EB7E0E0
:10537000AB2EB12C8091F2249091F32461E070E087
:10538000002E02C0660F771F0A94E2F78623972348
:10539000892B09F464C22091F2243091F324CB01CB
:1053A00080959095822393238093F2249093F32405
:1053B000F8940A3001F10B3048F4083009F408C1C0
:1053C000093030F5043009F047C214C10C3009F43B
:1053D00014C10C3020F00D3009F03EC2B2C18091F2
:1053E000E3249091E42483709070029708F034C213
:1053F0001092E024CEC18091E3249091E424837044
:105400009070892B09F028C281E08093E02402C2C9
:105410002091E3243091E424C901837090700397B4
:1054200019F02F5F3F4F01C02C7F2093E32430936E
:10543000E42494E89D83E8E4EE838091E324909152
:10544000E42483709070009709F04BC08091612034
:1054500090916220A0916320B09164208152914A82
:10546000A740B04088F08092612090926220A09284
:105470006320B092642060E874E88EE190E040E040
:105480000E943D4E0E947F5319867D82F70110A233
:1054900011A2D782F1E0F9874E828091DE2481301B
:1054A00011F4C092A5061092E0248091D62060E00D
:1054B0000E94BF268091D1209091D2206091D5206A
:1054C000880F991F70E00E94C3526091D52080918F
:1054D000D1209091D22070E041E050E00E94D04570
:1054E0004EC08130910551F51092400B1092000B87
:1054F0001092600B1092610B1092200B1092210BF6
:105500007D82F70110A211A2D782F1E0F9872986E6
:105510004E821092E0248091D62060E00E94BF2647
:105520006091D5208091D1209091D22070E041E00F
:1055300050E00E94D0450E946D4321C0029779F44B
:105540007D82F7011782198629864E828091DE249A
:10555000813011F4C092A606D092E02410C01986C2
:10556000F8E4FE83CD82F70117821986DE828CE093
:1055700063E00E94BF2682E991E20E94EC268091BE
:10558000CD209091CE2060E070E00E944047609175
:10559000D5208091D1209091D22070E041E050E060
:1055A0000E94D04582E090E00E94AD420E946D438F
:1055B0008091E024882329F48091D62060E00E9425
:1055C000BF268091E024823008F446C180E141C1C9
:1055D0008091E3249091E42486FD02C0806401C0A0
:1055E0008F7B8093E3249093E4240E9445530E9490
:1055F0006D4332C11092E1242FC18091E0248130AB
:1056000099F1813020F0833009F026C178C0809173
:10561000CF209091D0209C01F3E0220F331FFA9508
:10562000E1F7880F991F280F391F2093CF2030935F
:10563000D0202151374230F080E197E28093CF2093
:105640009093D0208091D62081508093D6208930AD
:1056500011F43092D6208091D620873008F099C07E
:1056600097E09093D62095C08091D3209091D4203C
:105670009C0173E0220F331F7A95E1F7880F991F81
:10568000280F391F2093D3203093D420285E334035
:1056900030F088EE93E08093D3209093D4208091D3
:1056A000D72081508093D720893041F48091D52034
:1056B000882311F0833011F43092D7208091D720C5
:1056C0008A3049F48091D520813011F0843019F46A
:1056D00099E09093D7208091D7208B3041F480912E
:1056E000D520823011F0853011F45092D72080916E
:1056F000D720883008F08EC03092D7208BC0209100
:10570000DB203091DC20E3E0283E3E0770F4C90145
:1057100053E0880F991F5A95E1F7220F331F820F2C
:10572000931F8093DB209093DC208091DD208150BB
:105730008093DD208D3008F08AC0FDE0F093DD20FD
:1057400086C08091E024813041F1813020F08330A7
:1057500009F082C063C08091CF209091D020823028
:10576000910540F06AE070E00E94DD606093CF2018
:105770007093D0208091D6208F5F8093D62089307F
:1057800011F45092D6208091D6208D3010F0609286
:10579000D6208091D62060E05DC08091D32090918A
:1057A000D4208230910540F06AE070E00E94DD6014
:1057B0006093D3207093D4208091D7208F5F809303
:1057C000D720893041F48091D520882311F083308F
:1057D00011F45092D7208091D7208A3049F48091DB
:1057E000D520813011F0843019F42BE02093D7209C
:1057F0008091D7208B3041F48091D520823011F0F8
:10580000853011F46092D7208091D7208D3010F030
:105810006092D7208091D72061E01CC08091DB206E
:105820009091DC208230910540F06AE070E00E94A7
:10583000DD606093DB207093DC208091DD208F5F42
:105840008093DD20803118F08FE08093DD208091FF
:10585000DD2063E00E94BF260E94935478940F5F7E
:105860001F4F0E30110509F085CD8091E12488236A
:1058700009F061CD1092DF241092000B1092400BC2
:10588000E0E4FBE010A211A2E0E0FBE010A211A214
:10589000A0E0B8E017961C921797E0E4F6E01186B6
:1058A000118690961D921C9291978EEC858380E8CC
:1058B000E0EAF6E086830E940F080E943F4DDF91E8
:1058C000CF911F910F91FF90EF90DF90CF90BF90FD
:1058D000AF909F908F907F906F905F904F903F9090
:1058E0002F9008952F923F924F925F926F927F92E6
:1058F0008F929F92AF92BF92CF92DF92EF92FF92E0
:105900000F931F93CF93DF9385E08093E124109250
:10591000E024F894E0E4F6E080E4868380E8858380
:105920008091DE24813001F5409161205091622008
:10593000609163207091642080916F20909170201D
:105940000E94E35380936F209093702040919B209E
:1059500050919C2060919D2070919E200E94E35365
:1059600080936F20909370208091DE248230C9F460
:1059700080919B2090919C20A0919D20B0919E2091
:1059800081549244AF40B04060F080E492E4AFE0D4
:10599000B0E080939B2090939C20A0939D20B09397
:1059A0009E2060916120709162208091632090918F
:1059B0006420E2E0660F771F881F991FEA95D1F7F0
:1059C00041E00E943D4E60919B2070919C2080910F
:1059D0009D2090919E2052E0660F771F881F991F8F
:1059E0005A95D1F740E00E943D4E80E060E00E9471
:1059F000BF2687E991E20E94EC2680E061E00E94E8
:105A0000BF2688EA91E20E94EC2680E062E00E94D4
:105A1000BF268FE591E20E94EC268091DE2490E083
:105A20000E943F438091DF2490E00E94F04983E090
:105A300090E00E94AD42609161207091622080915F
:105A400063209091642040E050E00E949544609172
:105A50009B2070919C2080919D2090919E2041E000
:105A600050E00E9495448091E32484FD1FC0609122
:105A7000A7208091A3209091A42070E00E94C3529F
:105A8000E0E4F6E084E0868382E8858387E062E0F4
:105A90000E94BF266091A7208091A3209091A4200E
:105AA00070E042E050E00E94D0451CC01092400BD4
:105AB0001092000BE0E4FBE010A211A2E0E0FBE09A
:105AC00010A211A2E0E4F6E082E0868384E08683FF
:105AD00080E8858387E062E00E94BF2689EB91E23F
