:100000000C944A010C9470010C9470010C94D90466
:100010000C9470010C9470010C9470010C9470019C
:100020000C9470010C9470010C9470010C9470018C
:100030000C9470010C9470010C9470010C9470017C
:100040000C9472010C9470010C9470010C9470016A
:100050000C94860D0C9470010C9470010C9470013A
:100060000C9470010C9470010C9470010C9470014C
:100070000C9470010C9470010C9470010C9470013C
:100080000C9470010C9470010C9470010C9470012C
:100090000C9470010C9470010C9470010C9470011C
:1000A0000C9470010C9470010C9470010C9470010C
:1000B0000C9470010C9470010C9470010C940E0C53
:1000C0000C9470010C9470010C9470010C947001EC
:1000D0000C9470010C944A0B0C9470010C947001F8
:1000E0000C9470010C9470010C9470010C947001CC
:1000F0000C9470010C9470010C9470010C947001BC
:100100000C9470010C9470010C9470010C947001AB
:100110000C9470010C9470010C9470010C9470019B
:100120000C9470010C9470010C9470010C9470018B
:100130000C9470010C94530D0C9470010C9470018C
:100140000C9470010C9470010C9470010C94970C39
:100150000C9470010C9470010C9470010C9470015B
:100160000C9470010C9470010C9470010C9470014B
:100170000C9470010C9470010C9470010C9470013B
:100180000C9470010C9470010C94C1010C941D0E20
:100190000C9470010C9470010C9470010C9470011B
:1001A0000C9470010C9470010C9470010C9470010B
:1001B0000C9470010C9470010C9470010C947001FB
:1001C0000C9470010C9470010C9496010C947001C5
:1001D0000C9470010C9470010C9470010C947001DB
:1001E0000C9470010C9470010C9470010C947001CB
:1001F0000C94700105A84CCDB2D44EB93836A90282
:100200000C50B9918688083CA6AAAA2ABE00000014
:10021000803F07634236B79BD8A71A39685618AE95
:10022000BAAB558C1D3CB7CC5763BD6DEDFD753E2B
:10023000F6177231BF000000803F08000000BE9238
:100240002449123EABAAAA2ABECDCCCC4C3E00001B
:100250000080BEABAAAAAA3E00000000BF000000BA
:10026000803F0000000000084178D3BB4387D113D2
:100270003D190E3CC3BD4282AD2B3E68EC8276BE7A
:10028000D98FE1A93E4C80EFFFBE01C4FF7F3F0044
:100290000000000011241FBECFEFDFE3DEBFCDBFA3
:1002A00000E00CBF18BE19BE1ABE1BBE13E2A0E0D0
:1002B000B0E2E0E9F8E900E00BBF02C007900D9260
:1002C000A63AB107D9F71BBE13E3A6EAB3E201C011
:1002D0001D92AF3CB107E1F70E9467050C94464CB4
:1002E0000C9400001F920F920FB60F9208B60F9257
:1002F0000BB60F92112418BE1BBE8F93EF93FF9382
:10030000E0E4F6E088E0868380E88583E0E0F8E0DA
:1003100010A211A2FF91EF918F910F900BBE0F9041
:1003200008BE0F900FBE0F901F9018951F920F924E
:100330000FB60F9208B60F920BB60F92112418BE8B
:100340001BBE8F93EF93FF938091AC23873039F4DA
:10035000E0E4F6E080E8868388E0858306C0E0E498
:10036000F6E084E0878380E88783FF91EF918F91A7
:100370000F900BBE0F9008BE0F900FBE0F901F90F6
:1003800018951F920F920FB60F9208B60F9209B6EA
:100390000F920BB60F92112418BE19BE1BBE2F93DD
:1003A0003F934F935F936F937F938F939F93AF93FD
:1003B000BF93EF93FF938091AD2380FD0CC087E046
:1003C00061E00E94F23D80E4E0E2F7E08683809104
:1003D000AD2381600BC087E060E00E94F23D80E4C5
:1003E000E0E2F7E085838091AD238E7F8093AD239B
:1003F000FF91EF91BF91AF919F918F917F916F91FD
:100400005F914F913F912F910F900BBE0F9009BEBE
:100410000F9008BE0F900FBE0F901F901895E0E44C
:10042000F6E080E4868388E0868382E0858380939B
:10043000AA2382E092E20E948C3B80E492E20E9436
:10044000A63B60E070E080E090E041E00E94C03BAD
:1004500080E090E060E00E94C83C80E090E00E9474
:100460004F3B80E090E060E00E94953D86E061E0D7
:100470000E94F23D84E061E00E94F23D85E061E08F
:100480000E94F23D2091A6233091A7234091A823FA
:100490005091A923DA01C901880F991FAA1FBB1F18
:1004A000820F931FA41FB51F865F944061E00E94D6
:1004B000953D0E94D93A0895EF92FF920F931F93B2
:1004C000E0E4F6E080E4868388E0868382E085834A
:1004D0008091AA23882319F481E08093AA2380E3E2
:1004E00092E20E948C3B80E492E20E94A63B60E094
:1004F00075E58DEA97E040E00E94C03B80E090E027
:1005000060E00E94C83C85E397E061E00E94C83C3F
:1005100080E090E00E944F3B80913A2090913B20F8
:100520000E944A4684E0E0E8F6E0868300E416E0B4
:10053000E8E0EE2EF801E58272E0F72EF68280E820
:10054000E0E2F6E0868382E060E00E94F23D83E034
:1005500060E00E94F23DF801F682E5828AE0858340
:100560000E94D93A1F910F91FF90EF9008950F9339
:100570001F9300E416E088E0F801868382E085831B
:1005800082E092E20E948C3B80E492E20E94A63BD1
:1005900060913220709133208091342090913520E9
:1005A000F2E0660F771F881F991FFA95D1F740E098
:1005B0000E94C03B80E090E060E00E94C83C8091D7
:1005C0004A2090914B200E94654380914E2090914B
:1005D0004F200E94543B84E0E0E8F6E0868380E808
:1005E000E0EAF6E08583E0E2F6E0858382E061E020
:1005F0000E94F23D83E061E00E94F23D80913A204A
:1006000090913B200E944A468AE0F801858380EC65
:1006100085830E94D93A1F910F9108950F931F93DC
:100620008091322090913320A0913420B0913520D8
:10063000815A9648A140B04060F080EA96E8A1E077
:10064000B0E08093322090933320A0933420B09375
:10065000352000E416E088E0F801868382E0858397
:1006600082E092E20E948C3B88E292E20E94A63BEA
:100670006091322070913320809134209091352008
:1006800040E00E940A3D0E94443E84EF91E00E94B7
:100690007E4380913A2090913B200E944A4680EC14
:1006A000F801858384E0E0E8F6E0858380E8E0E215
:1006B000F6E0868382E061E00E94F23D83E060E044
:1006C0000E94F23D0E94D93A1F910F9108950F9315
:1006D0001F938091322090913320A0913420B091CB
:1006E000352081549244AF40B04060F080E492E401
:1006F000AFE0B0E08093322090933320A093342079
:10070000B093352000E416E088E0F801868382E0AB
:10071000858382E092E20E948C3B80E492E20E9418
:10072000A63B6091322070913320809134209091CB
:100730003520A2E0660F771F881F991FAA95D1F771
:1007400040E00E94C03B80E090E060E00E94C83C36
:1007500084EF91E00E947E4384E0E0E8F6E0868347
:1007600080E8E0E2F6E0868382E061E00E94F23D0C
:1007700083E060E00E94F23D80913A2090913B201E
:100780000E944A468AE0F801858380EC85830E94B6
:10079000D93A1F910F9108950F931F9300E416E02B
:1007A00088E0F801868382E0858380E092E20E94FF
:1007B0008C3B80E492E20E94A63B609132207091D3
:1007C00033208091342090913520B2E0660F771F5E
:1007D000881F991FBA95D1F740E00E94C03B80E086
:1007E00090E060E00E94C83C8091462090914720B4
:1007F0000E947E4384E0E0E8F6E0868380E8E0EA59
:10080000F6E08683E0E2F6E0868382E060E00E9424
:10081000F23D83E061E00E94F23D80913A209091A8
:100820003B200E944A468AE0F801858380EC85835C
:100830000E94D93A1F910F9108950F931F9300E4DE
:1008400016E088E0F801868382E0858380E092E20A
:100850000E948C3B80E492E20E94A63B6091322091
:1008600070913320809134209091352022E0660FE2
:10087000771F881F991F2A95D1F740E00E94C03B3F
:1008800080E090E060E00E94C83C84EF91E00E942C
:100890007E4384E0E0E8F6E0868380E8E0E2F6E08C
:1008A000868382E060E00E94F23D83E060E00E9487
:1008B000F23D80913A2090913B200E944A468AE086
:1008C000F801858380EC85830E94D93A1F910F91AE
:1008D00008958EE0E0E4F6E0858381E060E00E9428
:1008E000F23D8091AB232091322030913320409112
:1008F000342050913520833031F4CA01B90140E0F1
:100900000E940A3D28C062E0220F331F441F551F7A
:100910006A95D1F7CA01B90140E00E94C03B82E06C
:1009200092E20E94A63B60E070E080E090E040E050
:100930000E94443C60E070E080E090E041E00E9472
:10094000443C80E090E060E00E94E93C80E090E080
:1009500061E00E94E93C0E94D93A0E94CA310895A0
:10096000CF93DF9380E40E94771DC7EBD0E289919B
:100970000E947F1D80E2CF3BD807C9F788E40E9420
:10098000771DCFEBD0E289910E947F1D80E2C73CAA
:10099000D807C9F780E50E94771DCFEAD0E2899198
:1009A0000E947F1D80E2C73BD807C9F7DF91CF9136
:1009B00008951F920F920FB60F9208B60F9209B6C4
:1009C0000F920BB60F92112418BE19BE1BBE1F93B7
:1009D0002F933F934F935F936F937F938F939F9347
:1009E000AF93BF93EF93FF931091AC231830D9F4DA
:1009F0008091B02382FF53C086E063E00E94871D90
:100A000080E090E20E94B41DE0E4F6E094E096837A
:100A100015838091B123882319F49093400A3FC035
:100A20009093000B3CC01730D1F58091B02390E03B
:100A30008370907082309105F9F488ECE0E4F6E080
:100A400085838CE063E00E94871D86E090E20E942F
:100A5000B41D8091AE23882321F48091A72060E00B
:100A600005C0813031F48091A82061E00E94871D8B
:100A700016C08CE063E0FACF019789F4A0E0B8E0FB
:100A800090961D921C929197E0E4F6E080E88683B0
:100A900082E017968C9381E0818788E08583FF91BF
:100AA000EF91BF91AF919F918F917F916F915F91E6
:100AB0004F913F912F911F910F900BBE0F9009BE48
:100AC0000F9008BE0F900FBE0F901F9018952F9299
:100AD0003F924F925F926F927F928F929F92AF92CE
:100AE000BF92CF92DF92EF92FF920F931F93CF931B
:100AF000DF93109250008BECE0E5F0E08283809170
:100B000050008860809350008091510083FFFCCF9B
:100B100082ECE0E5F0E08583809150008061809375
:100B200050008091510084FFFCCF88ED84BF04E029
:100B300000934000E0E0F6E028E021832683E0E235
:100B4000F6E080EE81838683A0E4B6E08EEC119619
:100B50008C9311978EE815968C93159790E41696C2
:100B60009C931697E0E8F6E001830683E0EAF6E05E
:100B700080E881838683E0E2F7E095839183E0E07B
:100B8000F7E099E1978B828788E1848B968B80E5EB
:100B900083878FE0818780E11B968C931B9712E0FF
:100BA00054961C935497E0E0F8E0178280E8E82E12
:100BB00081E0F82E85E68093800120930008DD24F3
:100BC000D3945596DC92559780E21A968C931A9797
:100BD00019961C9284ECD70111968C9310A211A245
:100BE000E0E4F8E01092400880E590E086A397A347
:100BF00016830E94E51BE0E0F9E00093000980E223
:100C00009EE486A397A31683E0E4F9E010924009DE
:100C100080E991E086A397A31683E0E0FAE01092C2
:100C2000000A16A217A21683E0E4FAE01092400A26
:100C300016A217A21683E0E0FBE01092000B16A2AA
:100C400017A2D68280EFF7018283E0E4FBE01092E6
:100C5000400B16A217A216838091A2008660E0EADC
:100C6000F0E082838CE00E94CE1D0E94B00488E8F0
:100C700093E120E233E0F9013197F1F70197D9F7D9
:100C80008EE00E94CE1D0E94353B0E94593B0E947F
:100C90004B3D0E94B73D0E942F3E80E492E20E94AD
:100CA000A63B609132207091332080913420909146
:100CB0003520E2E0660F771F881F991FEA95D1F76C
:100CC00040E00E94C03B80913A2090913B200E94DE
:100CD0009F4480914620909147200E947E438FEF51
:100CE0009FE00E94543B80ECE0E4F6E0858380EDD9
:100CF00097E020E233E0F9013197F1F70197D9F756
:100D00000E94D93A87E061E00E94F23D80E4E0E28F
:100D1000F7E086838091AD2381608093AD23789442
:100D200000E051E0652E712C44E0842E3BE0932ED0
:100D300021E0222E312C90E4E92E96E0F92E80EA73
:100D4000482E86E0582E8091B9239091BA23A301B2
:100D5000002E02C0440F551F0A94E2F78423952306
:100D6000892B09F491C42091B9233091BA23CA0187
:100D700080959095822393238093B9239093BA23EF
:100D8000073009F455C0083098F4033009F446C020
:100D9000043038F4013079F18091AB230230A8F5AA
:100DA00022C0053009F459C0063008F04BC060C0BD
:100DB0000B3009F431C10C3048F4093009F443C157
:100DC0008091AB230A3008F032C144C10D3009F4E0
:100DD0007DC20D3008F485C10E3009F46CC30F30AC
:100DE00009F052C490C3882309F44EC41092AB2377
:100DF0000E941D0449C48091AB23813009F444C48E
:100E00000093AB230E94CC033FC4823009F43CC45E
:100E100082E08093AB230E94670336C48091AB23AA
:100E2000833009F431C40093AB230E940E032CC419
:100E30008091AB23843009F427C48092AB230E94B5
:100E4000B70222C48091AB23853009F41DC485E02C
:100E50008093AB230E945C0217C48091AB23863041
:100E600009F412C486E08093AB230E940F020CC4E5
:100E700085E063E00E94871D8BE090E20E94B41D34
:100E800016E0A12EB4E0DB2EA7E0CA2EF2E0BF2EC2
:100E9000BFC08091B9239091BA23A3010C2E02C048
:100EA000440F551F0A94E2F784239523892B09F4F4
:100EB000A7C02091B9233091BA23CA01809590959B
:100EC000822393238093B9239093BA2385E063E030
:100ED0000E94871DC330A1F1C43028F4C130A9F0AD
:100EE000C23008F509C0C63009F456C0C730B1F1A8
:100EF000C53009F080C05EC0B092AC231092AB2325
:100F00000E941D040E94022E7AC083E08093AC23CD
:100F10008091AB23833020F01092AB230E941D04FC
:100F20000E94DA2B6CC0D092AC238091AB2383302B
:100F300020F01092AB230E941D040E94CF295FC0B5
:100F400085E08093AC238091AB23843020F0109215
:100F5000AB230E941D040E94D62551C0A092AC2351
:100F600087E190E20E94B41D8091AB23843021F090
:100F7000D092AB230E94B70281E061E00E94F23D73
:100F800080E092E20E94A63B68EE73E080E090E091
:100F900041E00E94443C33C0F8E0F093AC238091E0
:100FA000AB23833020F01092AB230E941D040E94DB
:100FB0002B2325C0C092AC238091AB23863021F433
:100FC0001092AB230E941D04EAE0D7011596EC9322
:100FD000159716968C928091AB23843029F4E0E823
:100FE000D2011596EC9304C0E0E8D2011696EC937A
:100FF0000E94231E04C01092AC230E94690421E0C9
:101000002196C031D10509F044CF222309F03CC319
:1010100020E0C0E0D0E03DCF8091AB23853008F0E8
:1010200033C31092AA238091532060E009C0863018
:1010300008F02AC381E08093AA238091542061E0C4
:101040000E94871D21C382E08093AA2380915520AE
:1010500062E0F6CF813039F483E08093AA23809157
:10106000562063E0EDCF833061F48091AD2382FDA3
:1010700002C0846001C08B7F8093AD230E94443EF8
:101080003CC2843019F40E94EC2FFEC2882319F070
:10109000823009F0F9C28091B323882371F481E092
:1010A0008093B32380E090E00E944F3B8CE063E0AC
:1010B0000E94871D8DE190E211C08091B3238823A7
:1010C00009F4E2C21092B32384EF91E00E947E43C0
:1010D0008CE063E00E94871D82E290E20E94B41DD2
:1010E0000CC28091AA23813009F44AC0813038F0C3
:1010F000823009F47FC0833009F0C6C2B5C0609168
:1011000036207091372080913820909139202AE044
:1011100030E040E050E00E94994B6093362070939D
:101120003720809338209093392061587649884938
:10113000904060F080E896E9A8E9B0E0809336201E
:1011400090933720A0933820B0933920809153207A
:10115000815080935320883019F487E08093532086
:1011600080915320843019F483E080935320809140
:101170005320823008F0F7C082E080935320F3C000
:1011800060913E2070913F208091402090914120BD
:101190002AE030E040E050E00E94994B60933E200E
:1011A00070933F208093402090934120615177427B
:1011B0008040904060F080E197E2A0E0B0E0809352
:1011C0003E2090933F20A0934020B09341208091F7
:1011D0005420815080935420883019F487E0809304
:1011E000542080915420863008F0F8C086E0809327
:1011F0005420F4C06091422070914320809144209B
:10120000909145202AE030E040E050E00E94994B68
:101210006093422070934320809344209093452014
:10122000615177428040904064F080E197E2A0E015
:10123000B0E08093422090934320A0934420B09349
:10124000452080915520815080935520883019F495
:1012500087E08093552080915520863008F0FAC0B1
:1012600086E080935520F6C08091AB23813009F051
:101270000BC280914820909149209C01E3E0220F0D
:10128000331FEA95E1F7880F991F280F391F209324
:101290004820309349202536310530F084E690E02F
:1012A00080934820909349208091562081508093CC
:1012B00056208D3019F48CE0809356208091562072
:1012C0008B3008F0F5C090925620F2C08091AA238E
:1012D000813009F44BC0813038F0823009F481C08C
:1012E000833009F0D1C1BBC06091362070913720A6
:1012F00080913820909139202AE030E040E050E0A1
:101300000E94D84BC901DA01809336209093372090
:10131000A0933820B09339200097A105B10561F45E
:1013200081E090E0A0E0B0E08093362090933720F9
:10133000A0933820B0933920809153208F5F809301
:101340005320843019F485E08093532080915320FA
:10135000883019F489E080935320809153208C3099
:1013600010F0909253208091532076C060913E20DF
:1013700070913F2080914020909141202AE030E000
:1013800040E050E00E94D84BC901DA0180933E2032
:1013900090933F20A0934020B09341200097A10557
:1013A000B10561F481E090E0A0E0B0E080933E20E0
:1013B00090933F20A0934020B093412080915420EF
:1013C0008F5F80935420883019F489E080935420F3
:1013D000809154208C3010F09092542080915420B1
:1013E0003BC06091422070914320809144209091B5
:1013F00045202AE030E040E050E00E94FA4BC9016D
:10140000DA018093422090934320A0934420B0932C
:101410004520181619061A061B0664F081E090E0B4
:10142000A0E0B0E08093422090934320A09344201A
:10143000B0934520809155208F5F80935520883050
:1014400019F489E080935520809155208C3010F05C
:1014500090925520809155206091AA23F1CD8091E2
:10146000AB23813009F010C1809148209091492030
:101470006AE070E00E94C44B60934820709349205A
:101480006115710521F42092482030924920809105
:1014900056208F5F809356208D3019F48EE0809314
:1014A0005620809156208F3018F08EE08093562081
:1014B00080915620D1CF8091B223882369F481E0B6
:1014C0008093B22386E060E00E94F23D80E061E01C
:1014D0000E94871D86E40FC08091B223882369F0A3
:1014E0001092B22386E061E00E94F23D80E061E06C
:1014F0000E94871D81E40E94A61D8091AA2390E08E
:101500000E94CA31C1C08091AA23882309F048C033
:101510002091AB23253008F043C088EE93E0A0E093
:10152000B0E08093322090933320A0933420B09386
:10153000352084E690E0A0E0B0E0809336209093E0
:101540003720A0933820B093392089E0809353202E
:101550002330A9F42AE0F701268368EE73E080E0E7
:1015600090E040E00E940A3D0E94443E82E0D701A4
:1015700016968C931697E8E01596EC9307C060EAF0
:101580007FE080E090E041E00E94C03B609132202B
:101590007091332080913420909135200E94CA3977
:1015A0008091AA23813041F58091AB23863020F5CC
:1015B00024E630E040E050E0C90120933A20309327
:1015C0003B2040933C2050933D2020933E2030937D
:1015D0003F20409340205093412029E02093542005
:1015E0000E944A4660913A2070913B2080913C20B5
:1015F00090913D200E9439398091AA23823019F5BB
:101600001092A6231092A7231092A8231092A92328
:1016100084E690E0A0E0B0E08093422090934320E5
:10162000A0934420B093452089E0809355200E94E8
:10163000A5436091A6237091A7238091A823909140
:10164000A9230E948F388091AA238330E9F48091E6
:10165000AB238130C9F484EF91E0809346209093CE
:1016600047208AE090E080934820909349208CE0C6
:101670008093562084EF91E00E947E438091462023
:10168000909147200E94BA370F5F003108F45BCB7E
:1016900000E059CB1F920F920FB60F9208B60F922F
:1016A00009B60F920BB60F92112418BE19BE1BBEBD
:1016B000FF920F931F932F933F934F935F936F93DB
:1016C0007F938F939F93AF93BF93EF93FF93A091DB
:1016D000B423B091B523109721F480E8E0E4F6E05C
:1016E000868300E616E098E0F92EF801F682A15311
:1016F000B84D8C910E94743BE091B423F091B523D6
:10170000E153FC4D80810E94743BF801F582F68222
:10171000E091B423F091B523E153F04D80810E9414
:10172000743BE091B423F091B523E153F44D8081F3
:101730000E94743BF801F58284E0E0E4F6E08783E0
:101740008091B4239091B52301968093B423909314
:10175000B523885E934008F447C0F8941092400A7D
:101760001092000BE0E4F6E088E0868384E885834D
:1017700060E070E080E090E040E00E94C03B60E00C
:1017800070E080E090E041E00E94C03B1092B42302
:101790001092B52385E063E00E94871D87E290E206
:1017A0000E94B41D8091AE23882341F48091AF2321
:1017B0008830C9F480919B2060E013C0813041F4EF
:1017C0008091AF23883079F480919C2061E009C03A
:1017D000823049F48091AF23883029F480919D2094
:1017E00062E00E94871D7894FF91EF91BF91AF91C5
:1017F0009F918F917F916F915F914F913F912F9129
:101800001F910F91FF900F900BBE0F9009BE0F908C
:1018100008BE0F900FBE0F901F9018951F920F9249
:101820000FB60F9208B60F9209B60F920BB60F9231
:10183000112418BE19BE1BBEFF920F931F932F9346
:101840003F934F935F936F937F938F939F93AF9348
:10185000BF93EF93FF93A091B623B091B723109756
:1018600029F480E8E0E4F6E0868308C021E0A43FA4
:10187000B20721F480E8E0E4F6E0858300E616E0B4
:1018800028E0F22EF801F682A153B84D8C910E9407
:10189000743BE091B623F091B723E153FC4D808176
:1018A0000E94743BF801F582F682E091B623F09134
:1018B000B723E153F04D80810E94743BE091B62341
:1018C000F091B723E153F44D80810E94743BF801FD
:1018D000F58284E0E0E4F6E087838091B62390917E
:1018E000B72301968093B6239093B723885E9340E5
:1018F00020F01092B6231092B723FF91EF91BF9181
:10190000AF919F918F917F916F915F914F913F9197
:101910002F911F910F91FF900F900BBE0F9009BE5A
:101920000F9008BE0F900FBE0F901F9018951F923A
:101930000F920FB60F9208B60F9209B60F920AB621
:101940000F920BB60F92112418BE19BE1ABE1BBE01
:10195000FF920F931F932F933F934F935F936F9338
:101960007F938F939F93AF93BF93CF93DF93EF9327
:10197000FF93809120028068E0E0F2E080A38091F4
:10198000060280FFFCCF209124023091250236957B
:1019900027953695279581E0E0E0F2E0868382E0A6
:1019A0002030380728F080E8E0E4F6E0858304C0C2
:1019B00080E8E0E4F6E086838091B823E901C15332
:1019C000DC4D882359F500E616E048E0F42EF801D6
:1019D000F682C050DC4F8881C050D44080640E94A1
:1019E000743B88810E94743BF801F582F682C050F6
:1019F000D44F888180640E94743BC050D440888159
:101A00000E94743BF801F58284E0E0E4F6E085830F
:101A10008091B8238F5F8093B82327C000E616E03B
:101A200038E0F32EF801F682C050DC4F8881C050B8
:101A3000D44080680E94743B88810E94743BF80106
:101A4000F582F682C050D44F888180680E94743B32
:101A5000C050D44088810E94743BF801F58284E034
:101A6000E0E4F6E086831092B823FF91EF91DF91D6
:101A7000CF91BF91AF919F918F917F916F915F9126
:101A80004F913F912F911F910F91FF900F900BBE9F
:101A90000F900ABE0F9009BE0F9008BE0F900FBEA8
:101AA0000F901F9018951F920F920FB60F9208B6C5
:101AB0000F9209B60F920BB60F92112418BE19BEE1
:101AC0001BBE2F933F934F935F936F937F938F939F
:101AD0009F93AF93BF93EF93FF930E948F1CFF914F
:101AE000EF91BF91AF919F918F917F916F915F9196
:101AF0004F913F912F910F900BBE0F9009BE0F9009
:101B000008BE0F900FBE0F901F9018951F920F9256
:101B10000FB60F9208B60F9209B60F920BB60F923E
:101B2000112418BE19BE1BBEDF92EF92FF920F93D5
:101B30001F932F933F934F935F936F937F938F9355
:101B40009F93AF93BF93EF93FF93809120028068A0
:101B5000E0E0F2E080A38091060280FFFCCF0091DC
:101B6000240210912502169507951695079581E098
:101B7000E0E0F2E0868382E00030180728F080E899
:101B8000E0E4F6E0858304C080E8E0E4F6E08683E4
:101B900080E8E0E4F6E087838091AC23823019F09E
:101BA000843079F518C0F0E8EF2EF6E0FF2EE0E182
:101BB000DE2EF701D68281E30E94853B01531C4D46
:101BC000F801E050FC4F80810E94853BF801808144
:101BD0000E94853B14C070E6E72E76E0F72E68E0A1
:101BE000D62EF701D68201531C4DF801E050FC4F70
:101BF00080810E94743BF80180810E94743BF70150
:101C0000D582FF91EF91BF91AF919F918F917F917D
:101C10006F915F914F913F912F911F910F91FF9085
:101C2000EF90DF900F900BBE0F9009BE0F9008BE93
:101C30000F900FBE0F901F9018951F920F920FB626
:101C40000F9208B60F9209B60F920BB60F9211249D
:101C500018BE19BE1BBE1F932F933F934F935F93E4
:101C60006F937F938F939F93AF93BF93EF93FF9364
:101C7000F8948091080786FF78C01091AC23183043
:101C8000F9F48091B02382FD02C00C94CC1B86E055
:101C900063E00E94871D80E090E20E94B41DE0E4B2
:101CA000F6E094E0968315838091B123882321F494
:101CB0009093400A0C94CC1B9093000B0C94CC1B7B
:101CC000173011F00C94CC1B8091B02390E08370FE
:101CD00090708230910591F5E0E4F6E0809148063D
:101CE00083FD09C088EC85838CE063E00E94871D3A
:101CF00086E090E20EC08091480683FF0CC088E425
:101D0000868380E885838CE063E00E94871D8DE2F6
:101D100090E20E94B41D8091AE23882329F4809123
:101D2000A72060E00C94CA1B813029F48091A82080
:101D300061E00C94CA1B8CE00C94C91B019711F054
:101D40000C94CC1BA0E0B8E090961D921C92919749
:101D5000E0E4F6E080E8868382E017968C9381E0E9
:101D6000818788E085830C94CC1B8091AF238823E6
:101D700009F06CC28091AA23813009F4D1C081306E
:101D800040F0823009F45FC1833011F00C94CC1B19
:101D9000F8C18091080784FF04C08091080785FF7F
:101DA00008C08091080784FD54C08091080785FF12
:101DB00050C02091362030913720409138205091EA
:101DC00039208091322090913320A0913420B0911D
:101DD0003520280F391F4A1F5B1F20933220309374
:101DE000332040933420509335208091AB238230B0
:101DF00051F4215432444F405040C0F080E492E40A
:101E0000AFE0B0E00BC0833089F4215A364841403E
:101E1000504060F080EA96E8A1E0B0E08093322084
:101E200090933320A0933420B093352080913220BA
:101E300090913320A0913420B091352081509D4263
:101E4000A143B14008F442C080E09DE2A1E3B1E0CB
:101E500035C08091080784FF04C08091080785FD84
:101E600008C08091080784FD31C08091080785FD76
:101E70002DC08091322090913320A0913420B091D8
:101E800035202091362030913720409138205091D4
:101E90003920821B930BA40BB50B809332209093B7
:101EA0003320A0933420B093352081509A45A24628
:101EB000B24060F081E090E0A0E0B0E0809332209A
:101EC00090933320A0933420B09335208091AB239E
:101ED0002091322030913320409134205091352090
:101EE000833031F4CA01B90140E00E940A3D0CC0C0
:101EF00082E0220F331F441F551F8A95D1F7CA0174
:101F0000B90140E00E94C03B6091322070913320C3
:101F100080913420909135200E94CA390C94CC1BBA
:101F20008091080784FF04C08091080785FF08C0DE
:101F30008091080784FD38C08091080785FF34C070
:101F400080913E2090913F20A0914020B09141206F
:101F500020913A2030913B2040913C2050913D20EF
:101F6000820F931FA41FB51F80933A2090933B20AC
:101F7000A0933C20B0933D2081519742A040B040B7
:101F800060F080E197E2A0E0B0E080933A20909387
:101F90003B20A0933C20B0933D2080913A2090912B
:101FA0003B200E944A4643C08091080784FF04C03A
:101FB0008091080785FD08C08091080784FD37C01F
:101FC0008091080785FD33C080913A2090913B2095
:101FD000A0913C20B0913D2020913E2030913F20A7
:101FE0004091402050914120821B930BA40BB50BD4
:101FF00080933A2090933B20A0933C20B0933D20C7
:1020000081529E44A040B04060F081E090E0A0E0AA
:10201000B0E080933A2090933B20A0933C20B09373
:102020003D2080913A2090913B200E949F446091F6
:102030003A2070913B2080913C2090913D200E945D
:1020400039390C94CC1B8091080784FF04C080911F
:10205000080785FF08C08091080784FD2BC0809188
:10206000080785FF27C08091422090914320A091CE
:102070004420B09145202091A6233091A723409180
:10208000A8235091A923820F931FA41FB51F8093EB
:10209000A6239093A723A093A823B093A9238151AB
:1020A0009742A040B0400CF442C080E197E2A0E02B
:1020B000B0E035C08091080784FF04C08091080714
:1020C00085FD08C08091080784FD31C08091080714
:1020D00085FD2DC08091A6239091A723A091A823D0
:1020E000B091A92320914220309143204091442077
:1020F00050914520821B930BA40BB50B8093A62314
:102100009093A723A093A823B093A923805F984D11
:10211000AF4FBF4F64F480EF98EDAFEFBFEF809308
:10212000A6239093A723A093A823B093A9238091DB
:10213000AB238630C1F42091A6233091A723409190
:10214000A8235091A923DA01C901880F991FAA1F5A
:10215000BB1F820F931FA41FB51F865F944061E0D1
:102160000E94953D02C00E94A5436091A6237091F4
:10217000A7238091A8239091A9230E948F380C94C3
:10218000CC1B8091AB23813011F00C94CC1B80913F
:10219000080784FF04C08091080785FF08C080916C
:1021A000080784FD18C08091080785FF14C080913E
:1021B0004820909149202091462030914720820F5D
:1021C000931F80934620909347208152934060F163
:1021D00080E293E025C08091080784FF04C08091CD
:1021E000080785FD08C08091080784FD1DC0809107
:1021F000080785FD19C080914620909147202091C5
:10220000482030914920821B930B80934620909365
:102210004720885C90408152934030F088EC90E0F9
:1022200080934620909347208091462090914720AC
:102230000E947E4380914620909147200E94BA37A9
:10224000809156206091AA230C94CA1B813009F01A
:10225000BEC08091CE23882329F0813011F00C94E8
:10226000CC1B5AC08091080784FF04C080910807E6
:1022700085FF08C08091080784FD18C08091080779
:1022800085FF14C080914C2090914D2020914A20D0
:1022900030914B20820F931F80934A2090934B20C4
:1022A000855D934058F184ED93E024C08091080748
:1022B00084FF04C08091080785FD08C0809108074D
:1022C00084FD1CC08091080785FD18C080914A20BC
:1022D00090914B2020914C2030914D20821B930BEC
:1022E00080934A2090934B204497855D934030F033
:1022F00084E190E080934A2090934B2080914A2083
:1023000090914B200E94654380914A2090914B20F0
:102310000E9457370C94CC1B8091080784FF04C09F
:102320008091080785FF08C08091080784FD1CC0C4
:102330008091080785FF18C080915020909151200E
:1023400020914E2030914F20820F931F80934E207A
:1023500090934F208050904160F18FEF9FE08093E9
:102360004E2090934F2025C08091080784FF04C021
:102370008091080785FD08C08091080784FD19C079
:102380008091080785FD15C080914E2090914F20C7
:102390002091502030915120821B930B80934E202E
:1023A00090934F208157974120F010924E20109229
:1023B0004F2080914E2090914F200E94543B80915D
:1023C0004E2090914F200E9417370C94CC1B8230E6
:1023D00009F093C08091AE23882329F0813011F059
:1023E0000C94CC1B43C08091080784FF04C08091EB
:1023F000080785FF08C08091080784FD0FC0809101
:10240000080785FF0BC080915F2090915E20890FA7
:1024100080935E208536F0F084E61AC0809108072C
:1024200084FF04C08091080785FD08C080910807DB
:1024300084FD10C08091080785FD0CC080915E204E
:1024400090915F20891B80935E20853618F081E093
:1024500080935E2080915E2090E00E946A3E809191
:102460005E2090E00E9456360C94CC1B80910807A9
:1024700084FF04C08091080785FF08C08091080789
:1024800084FD17C08091080785FF13C080915B20F1
:1024900090915C202091592030915A20820F931FF7
:1024A0008093592090935A2081529E4408F0ECC0AA
:1024B00016C18091080784FF04C08091080785FD3C
:1024C00008C08091080784FD0AC18091080785FD36
:1024D00006C18091592090915A2020915B20309123
:1024E0005C20821B930B8093592090935A20019774
:1024F00080529E4408F0EDC0F2C0833009F0FFC066
:102500008091AE23882329F0813011F00C94CC1BEC
:102510009AC08091080784FF04C08091080785FF56
:1025200008C08091080784FD42C08091080785FF9C
:102530003EC02091642030916520409166205091EA
:1025400067208091602090916120A0916220B091DD
:102550006320280F391F4A1F5B1F20936020309390
:10256000612040936220509363208091AB2382309E
:1025700059F42152314A4740504008F451C080E29A
:1025800091EAA7E0B0E00AC02058364948495040D7
:1025900008F446C08FE796E9A8E9B0E08093602090
:1025A00090936120A0936220B093632039C0809102
:1025B000080784FF04C08091080785FD08C080914A
:1025C000080784FD2DC08091080785FD29C08091F2
:1025D000602090916120A0916220B09163202091B1
:1025E0006420309165204091662050916720821BC5
:1025F000930BA40BB50B8093602090936120A09364
:102600006220B093632081509A45A246B24040F0C8
:10261000109260201092612010926220109263202C
:102620006091602070916120809162209091632080
:102630000E94233F60916020709161208091622010
:1026400090916320A0C48091080784FF04C080910A
:10265000080785FF08C08091080784FD18C0809195
:10266000080785FF14C080915B2090915C20209129
:10267000592030915A20820F931F809359209093B4
:102680005A2081529E4458F180E29EE424C08091F9
:10269000080784FF04C08091080785FD08C0809169
:1026A000080784FD1CC08091080785FD18C0809133
:1026B000592090915A2020915B2030915C20821B00
:1026C000930B8093592090935A20019780529E44F7
:1026D00030F081E090E08093592090935A208091CF
:1026E000592090915A200E949E40809159209091AB
:1026F0005A2061E070E00E949C360C94CC1B843020
:1027000009F0CAC01092400884E690E020E233E06D
:10271000F9013197F1F70197D9F78091AE2388231A
:1027200021F0813009F0B4C059C08091080784FFBE
:1027300004C08091080785FF08C08091080784FDC8
:1027400018C08091080785FF14C080916A2090917D
:102750006B202091682030916920820F931F809315
:102760006820909369208956914058F188E691E05D
:1027700024C08091080784FF04C08091080785FD6C
:1027800008C08091080784FD1CC08091080785FD62
:1027900018C0809168209091692020916A20309122
:1027A0006B20821B930B8093682090936920019784
:1027B0008856914030F081E090E0809368209093BB
:1027C000692080916820909169200E94AA3F8091A1
:1027D0006820909169200E9456365AC0809108075F
:1027E00084FF04C08091080785FF08C08091080716
:1027F00084FD18C08091080785FF14C080915B207C
:1028000090915C202091592030915A20820F931F83
:102810008093592090935A2081529E4458F180E22F
:102820009EE424C08091080784FF04C080910807BB
:1028300085FD08C08091080784FD1CC080910807B1
:1028400085FD18C08091592090915A2020915B20DD
:1028500030915C20821B930B8093592090935A20D7
:10286000019780529E4430F081E090E0809359209F
:1028700090935A208091592090915A200E949E4016
:102880008091592090915A2061E070E00E949C361E
:1028900084E08093400880C7853009F0D6C28091DB
:1028A000AE23813009F4C4C0813020F0823009F0B9
:1028B00073C77CC18091080784FF04C0809108071A
:1028C00085FF08C08091080784FD47C080910807F4
:1028D00085FF43C020917320309174204091752072
:1028E0005091762080916F2090917020A09171205E
:1028F000B0917220280F391F4A1F5B1F20936F2051
:102900003093702040937120509372208091AB23BC
:10291000833059F4215A36484140504008F45DC094
:1029200080EA96E8A1E0B0E050C0823059F421542A
:1029300032444F40504008F450C080E492E4AFE08D
:10294000B0E043C021503D424143514008F445C0EE
:1029500080E09DE2A1E3B1E038C08091080784FFE8
:1029600004C08091080785FD08C08091080784FD98
:1029700034C08091080785FD30C080916F20909110
:102980007020A0917120B09172202091732030911D
:1029900074204091752050917620821B930BA40BDC
:1029A000B50B80936F2090937020A0937120B0930B
:1029B00072200197A109B10980509A45A246B24000
:1029C00060F081E090E0A0E0B0E080936F20909311
:1029D0007020A0937120B09372208091AB2320913E
:1029E0006F2030917020409171205091722083307F
:1029F00051F4CA01B90141E00E940A3D82E0E0E4DD
:102A0000F6E086830CC0A2E0220F331F441F551F3F
:102A1000AA95D1F7CA01B90141E00E94C03B60917B
:102A20006F20709170208091712090917220ABC2C4
:102A30008091080784FF04C08091080785FF08C0C3
:102A40008091080784FD47C08091080785FF43C037
:102A500020917B2030917C2040917D2050917E20E0
:102A60008091772090917820A0917920B0917A2060
:102A7000280F391F4A1F5B1F20937720309378203F
:102A80004093792050937A208091AB23833059F47E
:102A9000215A36484140504008F45DC080EA96E82B
:102AA000A1E0B0E050C0823059F4215432444F408C
:102AB000504008F450C080E492E4AFE0B0E043C07E
:102AC00021503D424143514008F445C080E09DE221
:102AD000A1E3B1E038C08091080784FF04C0809171
:102AE000080785FD08C08091080784FD34C08091E7
:102AF000080785FD30C08091772090917820A091C3
:102B00007920B0917A2020917B2030917C204091D7
:102B10007D2050917E20821B930BA40BB50B8093DC
:102B2000772090937820A0937920B0937A20019712
:102B3000A109B10980509A45A246B24060F081E0F7
:102B400090E0A0E0B0E08093772090937820A0936D
:102B50007920B0937A208091AB2320917720309117
:102B600078204091792050917A20833051F4CA0125
:102B7000B90140E00E940A3D82E0E0E4F6E086838D
:102B80000CC0F2E0220F331F441F551FFA95D1F7F6
:102B9000CA01B90140E00E94C03B6091772070916A
:102BA00078208091792090917A2080C28091B02302
:102BB00084FDF2C58091080784FF04C08091080756
:102BC00085FF08C08091080784FD7CC080910807BC
:102BD00085FF78C0209181203091822080917F20D4
:102BE00090918020820F931F80937F20909380206C
:102BF00047E28031940708F465C040918320443057
:102C000009F45AC06AE070E00E94C44B60937F20D0
:102C10007093802022303105A0F0C9016AE070E095
:102C20000E94C44B6093812070938220423049F40B
:102C300090918620892F8950823018F49F5F90935D
:102C40008620909183209F5F90938320809186209F
:102C50008F5F80938620893039F4992311F0933067
:102C600019F48AE080938620809186208A3049F486
:102C700080918320813011F0843019F48BE08093AF
:102C80008620809186208B3049F480918320823089
:102C900011F0853019F48CE0809386208091862095
:102CA0008D3018F08CE08093862080918620609192
:102CB000AE230E94871D06C080E197E280937F20AB
:102CC000909380208091080784FF04C080910807BA
:102CD00085FD08C08091080784FDA5C08091080784
:102CE00085FDA1C0209181203091822083E0283E83
:102CF000380761F480917F2090918020805D97401B
:102D000028F420937F20309380200AC080917F2078
:102D100090918020821B930B80937F209093802042
:102D200020917F203091802083E0283E380708F0F2
:102D30006BC040918320442309F466C0C901E3E0DD
:102D4000880F991FEA95E1F7220F331F820F931F17
:102D500080937F2090938020809181209091822089
:102D60009C0163E0220F331F6A95E1F7880F991FDA
:102D7000280F391F2093812030938220433049F45B
:102D800090918620892F8A50823018F49150909328
:102D9000862090918320915090938320809186206B
:102DA000815080938620893039F4992311F0933033
:102DB00019F488E080938620809186208A3049F437
:102DC00080918320813011F0843019F489E0809360
:102DD0008620809186208B3049F480918320823038
:102DE00011F0853019F48AE0809386208091862046
:102DF000883018F488E08093862080918620609146
:102E0000AE230E94871D0FC02A50304027553A4EEE
:102E100050F080918320882331F48AE090E0809301
:102E20007F209093802080917F20909180206091DE
:102E300083200E94F73F6091832080917F209091B2
:102E4000802070E042E050E01AC4883009F03BC2B4
:102E50008091AE23813009F499C0813020F0823016
:102E600009F09AC428C18091080784FF04C08091AA
:102E7000080785FF08C08091080784FD3AC080914B
:102E8000080785FF36C020918B2030918C2040911F
:102E90008D2050918E208091872090918820A09144
:102EA0008920B0918A20280F391F4A1F5B1F209369
:102EB0008720309388204093892050938A208091E6
:102EC000AB23823059F4215432444F40504008F42F
:102ED00050C080E492E4AFE0B0E043C021503D42F6
:102EE0004143514008F445C080E09DE2A1E3B1E0D8
:102EF00038C08091080784FF04C08091080785FDD1
:102F000008C08091080784FD34C08091080785FDC2
:102F100030C08091872090918820A0918920B09125
:102F20008A2020918B2030918C2040918D205091CF
:102F30008E20821B930BA40BB50B8093872090935C
:102F40008820A0938920B0938A200197A109B10914
:102F500080509A45A246B24060F081E090E0A0E047
:102F6000B0E08093872090938820A0938920B0932D
:102F70008A200E94F2406091872070918820809181
:102F8000892090918A2040E050E092C0809108070B
:102F900084FF04C08091080785FF08C0809108075E
:102FA00084FD3AC08091080785FF36C020919320A8
:102FB00030919420409195205091962080918F20BF
:102FC00090919020A0919120B0919220280F391FCC
:102FD0004A1F5B1F20938F203093902040939120B5
:102FE000509392208091AB23823059F42154324483
:102FF0004F40504008F450C080E492E4AFE0B0E0AD
:1030000043C021503D424143514008F445C080E057
:103010009DE2A1E3B1E038C08091080784FF04C0BD
:103020008091080785FD08C08091080784FD34C0A1
:103030008091080785FD30C080918F20909190206D
:10304000A0919120B09192202091932030919420D2
:103050004091952050919620821B930BA40BB50BA9
:1030600080938F2090939020A0939120B0939220F2
:103070000197A109B10980509A45A246B24060F07B
:1030800081E090E0A0E0B0E080938F2090939020CA
:10309000A0939120B09392200E94F24060918F20E3
:1030A00070919020809191209091922041E050E089
:1030B0000E943C3371C38091080784FF04C0809153
:1030C000080785FF08C08091080784FD58C08091DB
:1030D000080785FF54C02091992030919A20809153
:1030E000972090919820820F931F80939720909320
:1030F000982047E28031940708F4D1C04091B12371
:103100004423B9F56AE070E00E94C44B60939720B5
:10311000709398202230310548F0C9016AE070E0D0
:103120000E94C44B6093992070939A209091B12390
:103130009F5F9093B12380919D208F5F80939D200E
:10314000893029F4992319F48AE080939D20809195
:103150009D208A3039F48091B123813019F48BE0BD
:1031600080939D2080919D208D3008F482C08CE05A
:103170007EC0413009F093C080E197E28CC080911D
:10318000080784FF04C08091080785FD08C080916E
:10319000080784FD84C08091080785FD80C02091C8
:1031A000992030919A2083E0283E380761F480917D
:1031B000972090919820805D974028F42093972045
:1031C000309398200AC08091972090919820821B7C
:1031D000930B809397209093982020919720309183
:1031E000982083E0283E380708F04AC08091B12338
:1031F000813009F045C0C90113E0880F991F1A9565
:10320000E1F7220F331F820F931F80939720909333
:1032100098208091992090919A209C01A3E0220F00
:10322000331FAA95E1F7880F991F280F391F2093A4
:10323000992030939A201092B12380919D20815043
:1032400080939D20893019F48AE080939D2080919D
:103250009D208A3039F48091B123813019F48BE0BC
:1032600080939D2080919D20883018F488E0809381
:103270009D2080919D206091AE230E94871D0FC0EC
:103280002A50304027553A4E50F08091B123882380
:1032900031F48AE090E08093972090939820609199
:1032A000B123809197209091982070E042E050E007
:1032B0000E94703280919720909198206091B12364
:1032C0000E94384069C2873009F066C28091AE23FF
:1032D000813009F487C0813020F0833009F05CC26E
:1032E000D1C18091080784FF04C08091080785FF41
:1032F00008C08091080784FD18C08091080785FFE9
:1033000014C08091A0209091A12020919E20309106
:103310009F20820F931F80939E2090939F20805523
:10332000934C58F180E593EC24C08091080784FF0A
:1033300004C08091080785FD08C08091080784FDBE
:103340001CC08091080785FD18C080919E20909137
:103350009F202091A0203091A120821B930B80936D
:103360009E2090939F2001978055934C30F081E0F0
:1033700090E080939E2090939F201092400BE0E479
:10338000FBE010A211A288E0E0E4F6E08683109250
:10339000000BE0E0FBE010A211A280919E20909132
:1033A0009F200197E0E0F8E080A791A710A211A26A
:1033B0008091B02390E083709070892B51F48091BC
:1033C000A2209091A320880F991F6091A6200E94AF
:1033D000F73F80919E2090919F2060E070E00E94D6
:1033E000D635DAC18091080784FF04C080910807B0
:1033F00085FF08C08091080784FD72C0809108078E
:1034000085FF6EC02091A4203091A5208091A2203C
:103410009091A320820F931F8093A2209093A320CA
:1034200047E28031940708F40CC14091A620443053
:1034300009F453C06AE070E00E94C44B6093A2207C
:103440007093A32022303105A0F0C9016AE070E03A
:103450000E94C44B6093A4207093A520423049F48D
:103460009091A820892F8950823018F49F5F909303
:10347000A8209091A6209F5F9093A6208091A820DD
:103480008F5F8093A820893039F4992311F093300D
:1034900019F48AE08093A8208091A8208A3049F40A
:1034A0008091A620813011F0843019F48BE0809354
:1034B000A8208091A8208B3049F48091A6208230EA
:1034C00011F0853019F48CE08093A8208091A82019
:1034D0008D3008F4A0C08CE09CC080E197E2ADC0C4
:1034E0008091080784FF04C08091080785FD08C00B
:1034F0008091080784FDA5C08091080785FDA1C0C3
:103500002091A4203091A52083E0283E380761F463
:103510008091A2209091A320805D974028F4209371
:10352000A2203093A3200AC08091A2209091A320D2
:10353000821B930B8093A2209093A3202091A22022
:103540003091A32083E0283E380708F06BC04091FB
:10355000A620442309F466C0C90173E0880F991FAF
:103560007A95E1F7220F331F820F931F8093A220D9
:103570009093A3208091A4209091A5209C0153E0DA
:10358000220F331F5A95E1F7880F991F280F391F13
:103590002093A4203093A520433049F49091A82093
:1035A000892F8A50823018F491509093A8209091DE
:1035B000A62091509093A6208091A82081508093BE
:1035C000A820893039F4992311F0933019F488E058
:1035D0008093A8208091A8208A3049F48091A62069
:1035E000813011F0843019F489E08093A820809113
:1035F000A8208B3049F48091A620823011F08530CC
:1036000019F48AE08093A8208091A820883018F4CB
:1036100088E08093A8208091A8206091AE230E942A
:10362000871D0FC02A50304027553A4E50F08091E8
:10363000A620882331F48AE090E08093A220909322
:10364000A32088E0E0E4F6E086838091B02390E058
:1036500083709070892B51F48091A2209091A320C7
:10366000880F991F6091A6200E94F73F6091A620C5
:103670008091A2209091A32070E041E050E00E9450
:1036800077348AC08091080784FF04C080910807BE
:1036900085FF08C08091080784FD1CC08091080741
:1036A00085FF18C08091AC209091AD202091AA2078
:1036B0003091AB20820F931F8093AA209093AB2070
:1036C0008F5F9F4060F18FEF9FE08093AA209093DF
:1036D000AB2025C08091080784FF04C080910807B3
:1036E00085FD08C08091080784FD19C080910807F6
:1036F00085FD15C08091AA209091AB202091AC202F
:103700003091AD20821B930B8093AA209093AB2025
:103710008155934C20F01092AA201092AB208091FA
:10372000AA209091AB200E944F3B8091AA209091BB
:10373000AB206FEB73E24AE050E00E94154C8BE047
:1037400063E00E94871D80E20E94A61D8091AA204E
:103750009091AB20885E934018F480E20E94A61DF1
:103760008091AA209091AB208436910518F480E2D4
:103770000E94A61D8091AA209091AB200A9718F470
:1037800080E20E94A61D8FEB93E20E94B41D8091FF
:10379000AE2063E00E94871D7894FF91EF91BF9166
:1037A000AF919F918F917F916F915F914F913F91D9
:1037B0002F911F910F900BBE0F9009BE0F9008BE66
:1037C0000F900FBE0F901F901895E0E0F7E08FE08C
:1037D000828380E1808B818B828B838B08951F9302
:1037E000CF93DF93182F80910807806F803F09F4F3
:1037F00046C08091BC239091BD23892B09F03FC026
:10380000612F70E061507040660F771F660F771F61
:10381000E0E0F0E040E050E0A1E0B0E08091080797
:103820009D01042E02C0220F331F0A94E2F790E09C
:1038300028233923232BD1F0CA01860F971F9D011E
:1038400002C0220F331F8A95E2F7C9018E239F23FE
:10385000892B61F48091B9239091BA23822B932B09
:103860008093B9239093BA23E22BF32B4F5F5F4FE2
:103870004430510599F6E093BC23F093BD23809129
:103880000807806F803F09F046C0A091BC23B0912B
:10389000BD23109709F43FC0E12FF0E03197EE0F00
:1038A000FF1FEE0FFF1F40E050E0C1E0D0E080912D
:1038B00008079E01042E02C0220F331F0A94E2F76C
:1038C00090E028233923232BE9F4CA018E0F9F1F90
:1038D000BE0102C0660F771F8A95E2F7CB018A23EB
:1038E0009B23892B79F02091B9233091BA23CB0106
:1038F00080959095282339232093B9233093BA23B8
:10390000A823B9234F5F5F4F4430510581F6A09340
:10391000BC23B093BD23DF91CF911F910895809177
:10392000BB23823099F0833018F4813061F505C0F3
:103930008330B9F0843039F51DC0E0EEF6E080EE5A
:10394000828380E18183858381E008C0E0EEF6E038
:1039500080ED828380E28183858382E00E94EF1B79
:1039600018C0E0EEF6E080EB828380E481838583FB
:1039700083E0F4CFE0EEF6E080E7828380E88183A5
:10398000858384E0EBCF1092BB2380EFE0EEF6E07E
:1039900082838091BB238F5F8093BB230895E0E2F5
:1039A000F7E084818260848300C000C000C000C052
:1039B00084818D7F848308951F93982F662321F03F
:1039C00080912407816003C0809124078E7FE0E20C
:1039D000F7E08483E0E2F7E0809120078460809341
:1039E000200780912007886080932007809120071E
:1039F0008061809320078091200780628093200758
:103A0000809124078F7D8483809124078F7E848317
:103A100080912407877F8483809124078B7F848310
:103A200097FF04C08091240780628483192F96FF3A
:103A300006C0809124078061E0E2F7E0848315FFEF
:103A400006C0809124078860E0E2F7E0848314FFD9
:103A500006C0809124078460E0E2F7E084830E943E
:103A6000CF1CE0E2F7E0809124078F7D8483809172
:103A700024078F7E848380912407877F84838091AD
:103A800024078B7F848313FF04C080912407806206
:103A9000848312FF06C0809124078061E0E2F7E092
:103AA000848311FF06C0809124078860E0E2F7E07C
:103AB000848310FF06C0809124078460E0E2F7E071
:103AC00084830E94CF1CE0E2F7E0809124078460A9
:103AD0008483809124078860848380912407806197
:103AE000848380912407806284831F910895E0E499
:103AF000FFE13197F1F760E00E94DC1C0895E0E4FB
:103B0000FFE13197F1F761E00E94DC1C0895662324
:103B100011F4805809C0613011F4805405C062303E
:103B200011F4805701C080530E94771D089580E4EE
:103B30009FE10197F1F781E090E0089581E00E9414
:103B4000771D089582E00E94771D0895E0E4FFE16B
:103B50003197F1F78A3021F480EC0E94771D0895A7
:103B600061E00E94DC1C0895CF93DF93EC0102C05A
:103B70000E94A61D89918823D9F7DF91CF910895DE
:103B8000CF93DF93EC0102C00E94A61DFE01219697
:103B900084918823C9F7DF91CF910895DF92EF9246
:103BA000FF920F931F93D82E00E217E0F801808157
:103BB0008160808380818260808380818460808353
:103BC0008081886080838081806180838081806241
:103BD000808380E094EF0197F1F78481886084838B
:103BE0008481846084830E94CF1C80E09CE90197DB
:103BF000F1F70E94CF1CE12C82E0F82EC70101975B
:103C0000F1F70E94CF1CC7010197F1F7F8018481F9
:103C10008B7F84830E94CF1CC7010197F1F788E254
:103C20000E94771D88E00E94771D0E949E1D86E0FD
:103C30000E94771D8D2D0E94771D1F910F91FF907F
:103C4000EF90DF9008952F923F924F925F926F9284
:103C50007F928F929F92AF92BF92CF92DF92EF921C
:103C6000FF920F931F93CF93DF9387E08093AF234F
:103C70001092AE23F89480E090E060E070E00E9443
:103C8000871D87EC90E20E94B41D80E090E061E027
:103C900070E00E94871D88ED90E20E94B41D80E0D4
:103CA00090E062E070E00E94871D89EE90E20E9441
:103CB000B41D80E090E063E070E00E94871D8AEF11
:103CC00090E20E94B41D8091AB2390E00E944232AA
:103CD0008091AC2390E00E941D3880919E209091AD
:103CE0009F2060E070E00E94D6356091A620809110
:103CF000A2209091A32070E041E050E00E94773430
:103D00008091B02390E062E070E00E94F9318091F0
:103D1000AB23863049F41092AB230E941D0480919E
:103D2000AB2390E00E944232A0E4B6E088E416960D
:103D30008C93169784E815968C9315978091B023F1
:103D400090E083709070009701F519961C92199776
:103D500082E815968C931597E0E0F8E010A211A286
:103D600082E0878381E019968C93199788E01696F4
:103D70008C938091A2209091A3206091A620880F1F
:103D8000991F70E00E94F73F4CC08130910591F47B
:103D900082E815968C931597E0E0F8E010A211A246
:103DA00082E0878381E019968C9319978CE01996AD
:103DB0008C9337C00297F9F488E016968C93169787
:103DC00082E815968C931597E0E0F8E01782199633
:103DD0001C9219978CE019968C9382E08093AE2305
:103DE0008CE090E063E070E00E94871D8BE091E240
:103DF0000E94B41D16C019961C92199788E0169659
:103E00008C93169780E815968C931597E0E0F8E070
:103E1000178219961C92199782E016968C938093BC
:103E2000AE238091AE23813059F0813018F082307A
:103E300099F40CC08091A72090E060E070E00AC087
:103E40008091A82090E061E070E004C08EE090E0F6
:103E500062E070E00E94871D7894C0E4D6E07CE0C8
:103E6000672E68E0962E58E0852E4AE0742E3CE0DE
:103E7000B32E8091B0238370813009F4698624E0E9
:103E8000E22EF12CC12C98E0D92E02E082E8A82E77
:103E900010E4212E1BE0312E412CBBE05B2E1E2DA9
:103EA0008091B9239091BA2341E050E00E2C02C0DA
:103EB000440F551F0A94E2F784239523892B09F4B4
:103EC00024C22091B9233091BA23CA0180959095DC
:103ED000822393238093B9239093BA23F89480E0AC
:103EE00090E060E00E94C83C1A30F9F01B3048F4C2
:103EF000183009F4C6C0193020F5143009F004C296
:103F0000CCC01C3009F4CCC01C3020F01D3009F0AE
:103F1000FBC169C18091B02390E0837090700297DB
:103F20000CF0F2C11092AE2386C18091B02390E0D4
:103F300083709070892B09F0E7C181E08093AE23F4
:103F4000BDC19091B023892F8370833011F09F5FA2
:103F500001C09C7F9093B02394E89D83E8E4EE83B6
:103F60008091B02390E0837090700097F1F41986EF
:103F7000AD82F60110A211A20783F1E0F9879E82BB
:103F80001092AE238091A72090E060E070E00E9444
:103F9000871D8091A2209091A3206091A620880F78
:103FA000991F70E00E94F73F1FC08130910541F5D5
:103FB0001092400B1092000BF10110A211A2F2011D
:103FC00010A211A2AD82F60110A211A20783F1E0A6
:103FD000F98769869E821092AE238091A72090E097
:103FE00060E070E00E94871D6091A6208091A22071
:103FF0009091A32070E041E050E00E94773426C009
:10400000029789F4AD82F6011782198669869E822D
:104010000093AE238CE090E063E070E00E94871D87
:104020008BE091E211C01986F8E4FE8380E88D836D
:10403000F601178219860E838CE090E063E070E051
:104040000E94871D80E191E20E94B41D80919E2014
:1040500090919F2060E070E00E94D6356091A6208C
:104060008091A2209091A32070E041E050E00E9456
:1040700077348091B02390E062E070E00E94F931E3
:1040800043C18091B02390E083709070892B09F038
:104090003BC1F3E0F093AE2330C11092AF2334C1A3
:1040A0008091AE23813099F1813020F0833009F086
:1040B0002BC178C08091A0209091A1209C01F3E0B9
:1040C000220F331FFA95E1F7880F991F280F391F28
:1040D0002093A0203093A1202151374230F0E0E11D
:1040E000F7E2E093A020F093A1208091A7208150D7
:1040F0008093A720893011F48092A7208091A72077
:10410000873008F098C0F7E0F093A72094C0809122
:10411000A4209091A5209C0173E0220F331F7A9573
:10412000E1F7880F991F280F391F2093A42030939F
:10413000A520285E334030F0E8EEF3E0E093A420C1
:10414000F093A5208091A82081508093A8208930E9
:1041500041F48091A620882311F0833011F48092DD
:10416000A8208091A8208A3049F48091A62081302F
:1041700011F0843019F4F9E0F093A8208091A82080
:104180008B3041F48091A620823011F0853011F4FB
:104190007092A8208091A820883008F08FC080926B
:1041A000A8208CC02091AC203091AD2083E0283E27
:1041B000380770F4C90153E0880F991F5A95E1F749
:1041C000220F331F820F931F8093AC209093AD205A
:1041D0008091AE2081508093AE208C3008F08DC04D
:1041E000B092AE208AC08091AE23813051F18130EF
:1041F00020F0833009F088C067C08091A0209091A2
:10420000A1208230910540F06AE070E00E94C44B2A
:104210006093A0207093A1208091A7208F5F80934E
:10422000A720893011F47092A7208091A7208D30AB
:1042300010F0B092A7208091A72090E060E070E09D
:1042400061C08091A4209091A5208230910540F01A
:104250006AE070E00E94C44B6093A4207093A52094
:104260008091A8208F5F8093A820893041F48091AD
:10427000A620882311F0833011F47092A820809139
:10428000A8208A3049F48091A620813011F0843032
:1042900019F49BE09093A8208091A8208B3041F4E2
:1042A0008091A620823011F0853011F4B092A820C0
:1042B0008091A8208D3010F0B092A8208091A82085
:1042C00090E061E070E01EC08091AC209091AD2044
:1042D0008230910540F06AE070E00E94C44B609328
:1042E000AC207093AD208091AE208F5F8093AE2084
:1042F000803118F0EFE0E093AE208091AE2090E0A6
:1043000063E070E00E94871D78940894E11CF11C22
:10431000FEE0EF16F10409F0C2CD8091AF238823AF
:1043200009F0A7CD1092AC231092000B1092400B15
:10433000E0E4FBE010A211A2E0E0FBE010A211A279
:10434000A0E0B8E017961C921797E0E4F6E011861B
:10435000118690961D921C9291978EEC85830E94F7
:1043600069040E94D93ADF91CF911F910F91FF907C
:10437000EF90DF90CF90BF90AF909F908F907F9005
:104380006F905F904F903F902F9008959F92AF92C3
:10439000BF92CF92DF92EF92FF920F931F93CF9332
:1043A000DF93F89489E08093AF2380E090E060E0B1
:1043B00070E00E94871D85E191E20E94B41D80E0BB
:1043C00090E061E070E00E94871D89EE90E20E941B
:1043D000B41D80E090E062E070E00E94871D8AEFEB
:1043E00090E20E94B41D8091AB2390E00E94423283
:1043F0008091AC2390E00E941D388BE090E063E058
:1044000070E00E94871D86E291E20E94B41D8091B7
:10441000B02390E060E070E00E94E9318091B02329
:1044200090E061E070E00E94F931789400E014E0DF
:1044300024E0922E91E0E92EF12C88E0A82EC0E431
:10444000D6E0BCE0DB2EA2E8CA2EFAE8BF2EF0C010
:104450008091B9239091BA23A701012E02C0440F85
:10446000551F0A94E2F784239523892B09F4DFC0B2
:104470002091B9233091BA23CA0180959095822367
:1044800093238093B9239093BA23F894183009F4B6
:1044900057C0193020F4143009F0C8C0C4C01A3015
:1044A000B1F01B3009F0C2C08091B02383FF02C07D
:1044B000877F01C088608093B0230E94F240809182
:1044C000B02390E060E070E00E94E931AFC08091DD
:1044D000B02382FF10C08B7F8093B02319869E8209
:1044E000BD826091B123809197209091982070E0D7
:1044F0000E9438401DC084608093B023DE82CD824C
:1045000060E070E080E090E040E00E94C03B60E04E
:1045100070E080E090E041E00E94C03B6091B123F8
:10452000809197209091982070E00E943840D98621
:104530008091B02390E061E070E00E94F93176C094
:1045400080E090E060E070E00E94871D8CE291E2E4
:104550000E94B41D80E090E061E070E00E94871D41
:104560008DE391E20E94B41D80E090E062E070E093
:104570000E94871D88ED90E20E94B41D8091AB23BC
:1045800090E00E9442328091AC2390E00E941D385E
:104590008BE090E063E070E00E94871D8EE491E282
:1045A0000E94B41D6091872070918820809189209D
:1045B00090918A2040E050E00E943C3360918F202F
:1045C00070919020809191209091922041E050E054
:1045D0000E943C336091B123809197209091982064
:1045E00070E042E050E00E9470328091AE23882358
:1045F00031F480919B2090E060E070E00FC081304A
:1046000031F480919C2090E061E070E007C082303E
:1046100039F480919D2090E062E070E00E94871D57
:10462000A092AF2302C01092AF2301E078941F5FE5
:104630001C3008F40DCF002311F414E009CFDF91F2
:10464000CF911F910F91FF90EF90DF90CF90BF908F
:10465000AF909F9008952F923F924F925F926F92EA
:104660007F928F929F92AF92BF92CF92DF92EF9202
:10467000FF920F931F93CF93DF93F89418E010935A
:10468000AF231092AE2380E090E060E070E00E94E3
:10469000871D8CE291E20E94B41D80E090E061E011
:1046A00070E00E94871D8DE391E20E94B41D80E0BE
:1046B00090E062E070E00E94871D88ED90E20E9429
:1046C000B41D8091AB2390E00E9442328091AC23D4
:1046D00090E00E941D388BE090E063E070E00E9463
:1046E000871D8EE491E20E94B41D60918720709135
:1046F00088208091892090918A2040E050E00E949B
:104700003C3360918F207091902080919120909106
:10471000922041E050E00E943C336091B1238091AF
:1047200097209091982070E042E050E00E94703213
:1047300080919B2090E060E070E00E94871D0E94C5
:10474000F240E0E4F6E084E4868382E885838091A9
:10475000B02382FD02C0158303C0168384E08187E5
:104760006091B123809197209091982070E00E94F1
:104770003840789414E004E0202EC1E0D0E008E056
:10478000B0E88B2EB6E99B2EB8E9AB2EB12CA8EE83
:104790004A2EA3E05A2EFCE06F2EEAE07E2E76E051
:1047A000372E61E0C62ED12CE12CF12CC4C18091B2
:1047B000B9239091BA23AE01012E02C0440F551FB8
:1047C0000A94E2F784239523892B09F4B3C120913D
:1047D000B9233091BA23CA018095909582239323FF
:1047E0008093B9239093BA23F8941A30A9F01B3020
:1047F00040F41830E9F0193098F4143009F099C1F8
:104800001AC01C30D9F01C3020F01D3009F091C1C5
:10481000CFC01092AE2310C121E02093AE234BC134
:104820008091B02382FD85C182E08093AE237AC15E
:104830000E94C6217EC11092AF237BC18091AE231E
:10484000813009F441C0813020F0823009F071C11B
:1048500076C060918B2070918C2080918D209091FA
:104860008E202AE030E040E050E00E94994B6093B7
:104870008B2070938C2080938D2090938E20615894
:1048800076498849904040F080928B2090928C200D
:10489000A0928D20B0928E2080919B208150809399
:1048A0009B20893011F400939B2080919B208530C0
:1048B00011F420929B2080919B20833008F0BCC093
:1048C00083E080939B20B8C06091932070919420E6
:1048D00080919520909196202AE030E040E050E0D1
:1048E0000E94994B6093932070939420809395201D
:1048F00090939620615876498849904040F0809284
:10490000932090929420A0929520B092962080912E
:104910009C20815080939C20893011F400939C202E
:1049200080919C20853011F420929C2080919C20C5
:10493000833008F0C0C083E080939C20BCC080918D
:10494000992090919A209C0153E0220F331F5A9591
:10495000E1F7880F991F280F391F20939920309372
:104960009A20285E334020F04092992050929A205D
:1049700080919D20815080939D20893031F48091D9
:10498000B123882311F400939D2080919D208A30CB
:1049900039F48091B123813019F429E020939D20CE
:1049A00080919D20883008F0BDC000939D20BAC042
:1049B0008091AE23813009F445C0813020F08230EF
:1049C00009F0B7C07EC060918B2070918C208091DF
:1049D0008D2090918E202AE030E040E050E00E944F
:1049E000D84BC901DA0180938B2090938C20A0933F
:1049F0008D20B0938E200097A105B10541F4C0929F
:104A00008B20D0928C20E0928D20F0928E2080918D
:104A10009B208F5F80939B20853011F430929B20E8
:104A200080919B20893011F470929B2080919B2073
:104A30008D3010F060929B2080919B2090E060E090
:104A400070E075C0609193207091942080919520C2
:104A5000909196202AE030E040E050E00E94D84B50
:104A6000C901DA018093932090939420A09395201C
:104A7000B09396200097A105B10541F4C092932010
:104A8000D0929420E0929520F092962080919C20E4
:104A90008F5F80939C20853011F430929C20809110
:104AA0009C20893011F470929C2080919C208D3044
:104AB00010F060929C2080919C2090E061E070E07A
:104AC00036C08091992090919A206AE070E00E940F
:104AD000C44B6093992070939A206115710521F45D
:104AE000C0939920D0939A2080919D208F5F8093CE
:104AF0009D20893031F48091B123882311F4709284
:104B00009D2080919D208A3039F48091B12381309D
:104B100019F48BE080939D2080919D208D3010F0C2
:104B200060929D2080919D2090E062E070E00E9464
:104B3000871D78941F5F1E3008F439CE8091AF2313
:104B4000882311F014E033CE1092000B1092000A6B
:104B50001092400AE0E0FBE010A211A2E0E0FAE0CF
:104B600010A211A2E0E4FAE010A211A2E0E4F6E043
:104B700011868EEC85831092AF231092AC230E9495
:104B800069040E94D93ADF91CF911F910F91FF9054
:104B9000EF90DF90CF90BF90AF909F908F907F90DD
:104BA0006F905F904F903F902F9008952F923F927B
:104BB0004F925F926F927F928F929F92AF92BF922D
:104BC000CF92DF92EF92FF920F931F93CF93DF93D9
:104BD00085E08093AF231092AE23F894E0E4F6E0F2
:104BE00080E4868380E885838091AB23833009F05D
:104BF00060C080916F2090917020A0917120B09141
:104C00007220815A9648A140B04060F080EA96E850
:104C1000A1E0B0E080936F2090937020A09371206A
:104C2000B09372208091772090917820A091792084
:104C3000B0917A20815A9648A140B04060F080EA55
:104C400096E8A1E0B0E08093772090937820A0933D
:104C50007920B0937A2060916F20709170208091BC
:104C600071209091722041E00E940A3D609177206E
:104C7000709178208091792090917A2040E00E9474
:104C80000A3D8091AD2382FF0FC080E090E060E09C
:104C90000E94C83C80E098E061E00E94C83C89E046
:104CA00094E060E00E94E93C82E0E0E4F6E0868384
:104CB0005CC08230C9F480916F2090917020A091E7
:104CC0007120B091722081549244AF40B04060F0A6
:104CD00080E492E4AFE0B0E080936F209093702086
:104CE000A0937120B09372208091AB238230C9F4DD
:104CF0008091772090917820A0917920B0917A20AE
:104D000081549244AF40B04060F080E492E4AFE060
:104D1000B0E08093772090937820A0937920B0938F
:104D20007A2060916F207091702080917120909115
:104D3000722022E0660F771F881F991F2A95D1F7EE
:104D400041E00E94C03B6091772070917820809173
:104D5000792090917A2002E0660F771F881F991FB3
:104D60000A95D1F740E00E94C03B80E090E060E00F
:104D700070E00E94871D8CE291E20E94B41D80E0E9
:104D800090E061E070E00E94871D8DE391E20E9457
:104D9000B41D80E090E062E070E00E94871D88ED25
:104DA00090E20E94B41D8091AB2390E00E944232B9
:104DB0008091AC2390E00E941D388091B02390E058
:104DC00063E070E00E94F93160916F207091702073
:104DD000809171209091722040E050E00E943C331D
:104DE00060917720709178208091792090917A203D
:104DF00041E050E00E943C338091B02384FD1FC00D
:104E00006091832080917F209091802070E00E94AB
:104E1000F73F86E8E0E4F6E0858387E090E062E033
:104E200070E00E94871D6091832080917F20909187
:104E3000802070E042E050E00E9477341EC0109263
:104E4000400B1092000BE0E4FBE010A211A2E0E0A6
:104E5000FBE010A211A2E0E4F6E082E0868384E0A9
:104E6000868380E8858387E090E062E070E00E94BE
:104E7000871D84E591E20E94B41D8091842090E01A
:104E800060E070E00E94871D789418E0612EB0E821
:104E90008B2EB6E99B2EB8E9AB2EB12CAAE05A2E88
:104EA000FCE07F2EE6E04E2E71E0C72ED12CE12CE7
:104EB000F12C8091B02384FF0EC08091480681FFC1
:104EC00004C08091480682FD06C0E0E4F6E086E07A
:104ED000868380E88583C4E0D0E060E4262E6BE022
:104EE000362E00E416E08091B9239091BA2361E058
:104EF00070E00C2E02C0660F771F0A94E2F786233B
:104F00009723892B09F41EC22091B9233091BA232B
:104F1000CB0180959095822393238093B92390931E
:104F2000BA23F894CA30B1F0CB3040F4C830F1F075
:104F3000C930A0F4C43009F004C262C0CC3009F416
:104F400062C0CC3020F0CD3009F0FBC129C11092F5
:104F5000AE236AC1E1E0E093AE23A5C18091B02306
:104F600084FDEFC1F2E0F093AE23E4C18091B02361
:104F700084FF21C08F7E8093B02360918320809135
:104F80007F209091802070E00E94F73F26E8F80192
:104F9000258387E090E062E070E00E94871D6091C9
:104FA000832080917F209091802070E042E050E04B
:104FB0000E9477341DC080618093B0231092400B13
:104FC0001092000BF10110A211A21092200B10926E
:104FD000210B26E0F801268380E8858387E090E0B6
:104FE00062E070E00E94871D84E591E20E94B41D9A
:104FF0008091B02390E063E070E00E94F931A1C19C
:105000001092AF239EC18091AE23813009F442C03B
:10501000813020F0823009F094C178C06091732013
:105020007091742080917520909176202AE030E074
:1050300040E050E00E94994B60937320709374207D
:1050400080937520909376206158764988499040E6
:1050500040F08092732090927420A0927520B092BC
:10506000762080918420815080938420893011F4AF
:105070006092842080918420853019F4F4E0F093CC
:10508000842080918420833008F0CEC023E02093D8
:105090008420CAC060917B2070917C2080917D200B
:1050A00090917E202AE030E040E050E00E94994B51
:1050B00060937B2070937C2080937D2090937E2052
:1050C000615876498849904040F080927B209092C8
:1050D0007C20A0927D20B0927E20809185208150FE
:1050E00080938520893011F46092852080918520FD
:1050F000853019F4F4E0F093852080918520833089
:1051000008F0D1C023E020938520CDC08091B0234A
:1051100084FD17C1209181203091822083E0283EB8
:10512000380770F4C90153E0880F991F5A95E1F7C9
:10513000220F331F820F931F809381209093822030
:1051400080918620815080938620893041F480911F
:105150008320882311F0833011F46092862080919F
:1051600086208A3049F480918320813011F0843088
:1051700019F4E9E0E0938620809186208B3041F499
:1051800080918320823011F0853011F45092862076
:1051900080918620883008F0CDC060928620CAC0F9
:1051A0008091AE23813009F445C0813020F08230F7
:1051B00009F0C7C07EC06091732070917420809107
:1051C0007520909176202AE030E040E050E00E9487
:1051D000D84BC901DA018093732090937420A09377
:1051E0007520B09376200097A105B10541F4C092D7
:1051F0007320D0927420E0927520F09276208091F6
:1052000084208F5F80938420853011F44092842025
:1052100080918420893011F45092842080918420E0
:105220008D3010F0709284208091842090E060E0B6
:1052300070E085C060917B2070917C2080917D2002
:1052400090917E202AE030E040E050E00E94D84B70
:10525000C901DA0180937B2090937C20A0937D206C
:10526000B0937E200097A105B10541F4C0927B2048
:10527000D0927C20E0927D20F0927E20809185204B
:105280008F5F80938520853011F440928520809136
:105290008520893011F450928520809185208D30B1
:1052A00010F0709285208091852090E061E070E0A0
:1052B00046C08091B02384FD44C0809181209091AC
:1052C00082208230910540F06AE070E00E94C44B79
:1052D0006093812070938220809186208F5F8093DD
:1052E0008620893041F480918320882311F0833017
:1052F00011F450928620809186208A3049F4809162
:105300008320813011F0843019F4FBE0F093862083
:10531000809186208B3041F480918320823011F07F
:10532000853011F470928620809186208D3010F0A7
:10533000709286208091862090E062E070E00E946A
:10534000871D78942196CE30D10509F0CCCD80917F
:10535000AF23882309F0ADCD1092000B1092400BC3
:1053600084ECE0E4F6E085831092AF231092AC2346
:105370000E9469040E94D93ADF91CF911F910F9149
:10538000FF90EF90DF90CF90BF90AF909F908F9065
:105390007F906F905F904F903F902F9008959F92D5
:1053A000AF92BF92CF92DF92EF92FF920F931F9333
:1053B000CF93DF9384E08093AF231092AE23E0E499
:1053C000F6E080E4868386E8858380E090E060E014
:1053D00070E00E94871D80E090E00E94A61D81E0A1
:1053E00090E00E94A61D8EE591E20E94B41D80E02F
:1053F00090E061E070E00E94871D8DE691E20E94DE
:10540000B41D80E090E062E070E00E94871D8EE7AE
:1054100091E20E94B41D80E090E063E070E00E94A1
:10542000871D8AEF90E20E94B41D8091AB2390E02B
:105430000E9442328091AC2390E00E941D388091FE
:105440006820909169200E9456368091B02385FD96
:105450000FC08091592090915A200E949E408091C7
:10546000592090915A2061E070E00E949C3615C04E
:1054700087E090E061E070E00E94871D84E591E2A2
:105480000E94B41D1092AE2380916E2090E060E0E7
:1054900070E00E94871D0E9479408091B02390E0C7
:1054A00062E070E00E94F9316091AE2380916E203D
:1054B00090E070E00E94871D8091682090916920A3
:1054C0000E94AA3F80E590E0E0E4F8E086A397A37D
:1054D00084E08093400880E092E20E948C3B6091DF
:1054E000322070913320809134209091352022E039
:1054F000660F771F881F991F2A95D1F740E00E94F9
:10550000C03B14E001E0E02EF12CCC24C394BAE0BF
:10551000DB2EA7E09A2EF8E0BF2E0CE0C0E4D6E028
:10552000E0E8AE2E24C18091B9239091BA23A7015F
:10553000012E02C0440F551F0A94E2F784239523DD
:10554000892B09F413C12091B9233091BA23CA01E0
:1055500080959095822393238093B9239093BA23C7
:10556000F8941A30A9F01B3038F4143009F460C0F4
:10557000193009F0FAC013C01C3009F45CC01C30AB
:1055800020F01D3009F0F1C0A5C01092AE23C2C0BA
:105590008091B02385FDE9C0C092AE23DFC0809129
:1055A000B02385FF24C08F7D8093B0238091592044
:1055B00090915A2061E070E00E949C36C092AE2328
:1055C0008091B02390E062E070E00E94F931609138
:1055D000AE2380915D2090E070E00E94871DAD8237
:1055E0008091592090915A200E949E40BEC08062B6
:1055F0008093B02387E090E061E070E00E94871D17
:1056000084E591E20E94B41D1092AE238091B023F4
:1056100090E062E070E00E94F9316091AE238091E9
:105620006E2090E070E00E94871D0E9479409DC02E
:105630001092AF239AC08091AE23882321F081304D
:1056400009F093C020C020916A2030916B2024364D
:10565000310570F4C90173E0880F991F7A95E1F75D
:10566000220F331F820F931F80936A2090936B2029
:1056700080916E20815080936E208A3008F04AC05D
:10568000D0926E2047C020915B2030915C2087E251
:105690002031380770F4C90153E0880F991F5A95DB
:1056A000E1F7220F331F820F931F80935B209093AB
:1056B0005C2080915D20815080935D20893011F4C1
:1056C000B0925D2080915D20873008F047C09092B5
:1056D0005D2044C08091AE23882321F0813009F001
:1056E00044C01EC080916A2090916B208230910549
:1056F00040F06AE070E00E94C44B60936A207093AF
:105700006B2080916E208F5F80936E208D3010F023
:1057100000936E2080916E2090E060E070E023C0E6
:1057200080915B2090915C208230910540F06AE08E
:1057300070E00E94C44B60935B2070935C2080916A
:105740005D208F5F80935D20893011F4D0925D20C1
:1057500080915D208D3010F000935D2080915D2060
:1057600090E061E070E00E94871D78941F5F1E301A
:1057700008F4D9CE8091AF23882311F014E0D3CE62
:105780001092400884ECE0E4F6E085831092AF23A9
:105790001092AC230E9469040E94D93ADF91CF9104
:1057A0001F910F91FF90EF90DF90CF90BF90AF903F
:1057B0009F9008957F928F929F92AF92BF92CF92C7
:1057C000DF92EF92FF920F931F93CF93DF9383E0CB
:1057D0008093AF231092AE23E0E4F6E080E486836A
:1057E00086E8858380E090E060E070E00E94871D9D
:1057F00080E090E00E94A61D8FE891E20E94B41D17
:1058000080E090E061E070E00E94871D8DE691E20B
:105810000E94B41D80E090E062E070E00E94871D6D
:105820008EE791E20E94B41D80E090E063E070E0BA
:105830000E94871D8AEF90E20E94B41D8091AB23E5
:1058400090E00E9442328091AC2390E00E941D388B
:10585000609160207091612080916220909163201E
:1058600040E050E00E943C338091B02385FD0FC0A2
:105870008091592090915A200E949E4080915920F9
:1058800090915A2061E070E00E949C3615C087E03C
:1058900090E061E070E00E94871D84E591E20E9443
:1058A000B41D1092AE2380916D2090E060E070E016
:1058B0000E94871D0E9479408091B02390E062E0B1
:1058C00070E00E94F9316091AE2380916D2090E0EC
:1058D00070E00E94871D609160207091612080912E
:1058E0006220909163200E94233F84E080934009CE
:1058F00014E004E0A02EB1E0EB2EF12CCC24C394F4
:10590000A8E0BA2EF7E07F2E0CE0EAE0DE2E76E08B
:10591000972EC0E4D6E060E8862E4FC18091B9236F
:105920009091BA23A701012E02C0440F551F0A947B
:10593000E2F784239523892B09F43EC12091B923F2
:105940003091BA23CA018095909582239323809346
:10595000B9239093BA23F8941A30A9F01B3038F485
:10596000143009F45EC0193009F025C113C01C3091
:1059700009F45AC01C3020F01D3009F01CC1B8C019
:105980001092AE23EDC08091B02385FD14C1C0926A
:10599000AE230AC18091B02385FF24C08F7D809300
:1059A000B0238091592090915A2061E070E00E94CC
:1059B0009C36C092AE238091B02390E062E070E00C
:1059C0000E94F9316091AE2380915D2090E070E0FB
:1059D0000E94871D8D828091592090915A200E94AB
:1059E0009E40E9C080628093B0230E94794087E0A6
:1059F00090E061E070E00E94871D84E591E20E94E2
:105A0000B41D1092AE238091B02390E062E070E06C
:105A10000E94F9316091AE2380916D2090E070E09A
:105A2000C8C01092AF23C7C08091AE23882321F055
:105A3000813009F0C0C035C060916420709165204C
:105A40008091662090916720603422E472072FE0F5
:105A5000820720E0920770F42AE030E040E050E056
:105A60000E94994B60936420709365208093662018
:105A70009093672080916D20815080936D208530B8
:105A800011F4A0926D2080916D20893011F4B092B4
:105A90006D2080916D20843008F062C0A0926D204E
:105AA0005FC020915B2030915C2087E22031380775
:105AB00070F4C90153E0880F991F5A95E1F7220F3E
:105AC000331F820F931F80935B2090935C20809103
:105AD0005D20815080935D20893011F4B0925D206B
